{
	"scripts/TicTacToe.sol": {
		"TicTacToe": {
			"abi": [
				{
					"constant": true,
					"inputs": [],
					"name": "myTurn",
					"outputs": [
						{
							"name": "",
							"type": "bool"
						}
					],
					"payable": false,
					"stateMutability": "view",
					"type": "function"
				},
				{
					"constant": true,
					"inputs": [],
					"name": "status",
					"outputs": [
						{
							"name": "",
							"type": "uint256"
						}
					],
					"payable": false,
					"stateMutability": "view",
					"type": "function"
				},
				{
					"constant": true,
					"inputs": [],
					"name": "showBoard",
					"outputs": [
						{
							"name": "",
							"type": "uint256[9]"
						}
					],
					"payable": false,
					"stateMutability": "view",
					"type": "function"
				},
				{
					"constant": false,
					"inputs": [
						{
							"name": "pos",
							"type": "uint256"
						}
					],
					"name": "move",
					"outputs": [],
					"payable": false,
					"stateMutability": "nonpayable",
					"type": "function"
				},
				{
					"constant": true,
					"inputs": [],
					"name": "turn",
					"outputs": [
						{
							"name": "",
							"type": "uint256"
						}
					],
					"payable": false,
					"stateMutability": "view",
					"type": "function"
				},
				{
					"constant": true,
					"inputs": [
						{
							"name": "pos",
							"type": "uint256"
						}
					],
					"name": "validMove",
					"outputs": [
						{
							"name": "",
							"type": "bool"
						}
					],
					"payable": false,
					"stateMutability": "view",
					"type": "function"
				},
				{
					"constant": true,
					"inputs": [
						{
							"name": "",
							"type": "uint256"
						}
					],
					"name": "players",
					"outputs": [
						{
							"name": "",
							"type": "address"
						}
					],
					"payable": false,
					"stateMutability": "view",
					"type": "function"
				},
				{
					"inputs": [
						{
							"name": "opponent",
							"type": "address"
						}
					],
					"payable": false,
					"stateMutability": "nonpayable",
					"type": "constructor"
				}
			],
			"devdoc": {
				"methods": {
					"move(uint256)": {
						"details": "a player makes a move",
						"params": {
							"pos": "the position the player places at DONE"
						}
					},
					"myTurn()": {
						"details": "check if it's msg.sender's turn",
						"return": "true if it's msg.sender's turn otherwise false DONE"
					},
					"showBoard()": {
						"details": "show the current board",
						"return": "board DONE"
					},
					"validMove(uint256)": {
						"details": "check a move is valid",
						"params": {
							"pos": "the position the player places at"
						},
						"return": "true if valid otherwise false DONE"
					}
				},
				"title": "TicTacToe contract*"
			},
			"evm": {
				"assembly": "    /* \"scripts/TicTacToe.sol\":101:3999  contract TicTacToe {... */\n  mstore(0x40, 0x80)\n    /* \"scripts/TicTacToe.sol\":257:258  1 */\n  0x1\n    /* \"scripts/TicTacToe.sol\":238:258  uint public turn = 1 */\n  0x2\n  sstore\n    /* \"scripts/TicTacToe.sol\":628:771  constructor(address opponent) public {... */\n  callvalue\n    /* \"--CODEGEN--\":8:17   */\n  dup1\n    /* \"--CODEGEN--\":5:7   */\n  iszero\n  tag_1\n  jumpi\n    /* \"--CODEGEN--\":30:31   */\n  0x0\n    /* \"--CODEGEN--\":27:28   */\n  dup1\n    /* \"--CODEGEN--\":20:32   */\n  revert\n    /* \"--CODEGEN--\":5:7   */\ntag_1:\n    /* \"scripts/TicTacToe.sol\":628:771  constructor(address opponent) public {... */\n  pop\n  mload(0x40)\n  0x20\n  dup1\n  bytecodeSize\n  dup4\n  codecopy\n  dup2\n  add\n  dup1\n  0x40\n  mstore\n  dup2\n  add\n  swap1\n  dup1\n  dup1\n  mload\n  swap1\n  0x20\n  add\n  swap1\n  swap3\n  swap2\n  swap1\n  pop\n  pop\n  pop\n    /* \"scripts/TicTacToe.sol\":697:705  opponent */\n  dup1\n    /* \"scripts/TicTacToe.sol\":683:705  msg.sender != opponent */\n  0xffffffffffffffffffffffffffffffffffffffff\n  and\n    /* \"scripts/TicTacToe.sol\":683:693  msg.sender */\n  caller\n    /* \"scripts/TicTacToe.sol\":683:705  msg.sender != opponent */\n  0xffffffffffffffffffffffffffffffffffffffff\n  and\n  eq\n  iszero\n    /* \"scripts/TicTacToe.sol\":675:722  require(msg.sender != opponent, \"No self play\") */\n  iszero\n  iszero\n  tag_4\n  jumpi\n  mload(0x40)\n  0x8c379a000000000000000000000000000000000000000000000000000000000\n  dup2\n  mstore\n  0x4\n  add\n  dup1\n  dup1\n  0x20\n  add\n  dup3\n  dup2\n  sub\n  dup3\n  mstore\n  0xc\n  dup2\n  mstore\n  0x20\n  add\n  dup1\n  0x4e6f2073656c6620706c61790000000000000000000000000000000000000000\n  dup2\n  mstore\n  pop\n  0x20\n  add\n  swap2\n  pop\n  pop\n  mload(0x40)\n  dup1\n  swap2\n  sub\n  swap1\n  revert\ntag_4:\n    /* \"scripts/TicTacToe.sol\":732:764  players = [msg.sender, opponent] */\n  0x40\n  dup1\n  mload\n  swap1\n  dup2\n  add\n  0x40\n  mstore\n  dup1\n    /* \"scripts/TicTacToe.sol\":743:753  msg.sender */\n  caller\n    /* \"scripts/TicTacToe.sol\":732:764  players = [msg.sender, opponent] */\n  0xffffffffffffffffffffffffffffffffffffffff\n  and\n  0xffffffffffffffffffffffffffffffffffffffff\n  and\n  dup2\n  mstore\n  0x20\n  add\n    /* \"scripts/TicTacToe.sol\":755:763  opponent */\n  dup3\n    /* \"scripts/TicTacToe.sol\":732:764  players = [msg.sender, opponent] */\n  0xffffffffffffffffffffffffffffffffffffffff\n  and\n  0xffffffffffffffffffffffffffffffffffffffff\n  and\n  dup2\n  mstore\n  pop\n    /* \"scripts/TicTacToe.sol\":732:739  players */\n  0x0\n    /* \"scripts/TicTacToe.sol\":732:764  players = [msg.sender, opponent] */\n  swap1\n  0x2\n  tag_5\n  swap3\n  swap2\n  swap1\n  jump\t// in(tag_6)\ntag_5:\n  pop\n    /* \"scripts/TicTacToe.sol\":628:771  constructor(address opponent) public {... */\n  pop\n    /* \"scripts/TicTacToe.sol\":101:3999  contract TicTacToe {... */\n  jump(tag_7)\ntag_6:\n  dup3\n  0x2\n  dup2\n  add\n  swap3\n  dup3\n  iszero\n  tag_8\n  jumpi\n  swap2\n  0x20\n  mul\n  dup3\n  add\ntag_9:\n  dup3\n  dup2\n  gt\n  iszero\n  tag_10\n  jumpi\n  dup3\n  mload\n  dup3\n  exp(0x100, 0x0)\n  dup2\n  sload\n  dup2\n  0xffffffffffffffffffffffffffffffffffffffff\n  mul\n  not\n  and\n  swap1\n  dup4\n  0xffffffffffffffffffffffffffffffffffffffff\n  and\n  mul\n  or\n  swap1\n  sstore\n  pop\n  swap2\n  0x20\n  add\n  swap2\n  swap1\n  0x1\n  add\n  swap1\n  jump(tag_9)\ntag_10:\ntag_8:\n  pop\n  swap1\n  pop\n  tag_11\n  swap2\n  swap1\n  jump\t// in(tag_12)\ntag_11:\n  pop\n  swap1\n  jump\t// out\ntag_12:\n  tag_13\n  swap2\n  swap1\ntag_14:\n  dup1\n  dup3\n  gt\n  iszero\n  tag_15\n  jumpi\n  0x0\n  dup2\n  dup2\n  0x100\n  exp\n  dup2\n  sload\n  swap1\n  0xffffffffffffffffffffffffffffffffffffffff\n  mul\n  not\n  and\n  swap1\n  sstore\n  pop\n  0x1\n  add\n  jump(tag_14)\ntag_15:\n  pop\n  swap1\n  jump\ntag_13:\n  swap1\n  jump\t// out\ntag_7:\n  dataSize(sub_0)\n  dup1\n  dataOffset(sub_0)\n  0x0\n  codecopy\n  0x0\n  return\nstop\n\nsub_0: assembly {\n        /* \"scripts/TicTacToe.sol\":101:3999  contract TicTacToe {... */\n      mstore(0x40, 0x80)\n      jumpi(tag_1, lt(calldatasize, 0x4))\n      calldataload(0x0)\n      0x100000000000000000000000000000000000000000000000000000000\n      swap1\n      div\n      0xffffffff\n      and\n      dup1\n      0x1ed4557f\n      eq\n      tag_2\n      jumpi\n      dup1\n      0x200d2ed2\n      eq\n      tag_3\n      jumpi\n      dup1\n      0x49a9798d\n      eq\n      tag_4\n      jumpi\n      dup1\n      0x87cb15f7\n      eq\n      tag_5\n      jumpi\n      dup1\n      0x8b299903\n      eq\n      tag_6\n      jumpi\n      dup1\n      0xb4c95a5c\n      eq\n      tag_7\n      jumpi\n      dup1\n      0xf71d96cb\n      eq\n      tag_8\n      jumpi\n    tag_1:\n      0x0\n      dup1\n      revert\n        /* \"scripts/TicTacToe.sol\":2627:2723  function myTurn() public view returns (bool) {... */\n    tag_2:\n      callvalue\n        /* \"--CODEGEN--\":8:17   */\n      dup1\n        /* \"--CODEGEN--\":5:7   */\n      iszero\n      tag_9\n      jumpi\n        /* \"--CODEGEN--\":30:31   */\n      0x0\n        /* \"--CODEGEN--\":27:28   */\n      dup1\n        /* \"--CODEGEN--\":20:32   */\n      revert\n        /* \"--CODEGEN--\":5:7   */\n    tag_9:\n        /* \"scripts/TicTacToe.sol\":2627:2723  function myTurn() public view returns (bool) {... */\n      pop\n      tag_10\n      jump(tag_11)\n    tag_10:\n      mload(0x40)\n      dup1\n      dup3\n      iszero\n      iszero\n      iszero\n      iszero\n      dup2\n      mstore\n      0x20\n      add\n      swap2\n      pop\n      pop\n      mload(0x40)\n      dup1\n      swap2\n      sub\n      swap1\n      return\n        /* \"scripts/TicTacToe.sol\":372:390  uint public status */\n    tag_3:\n      callvalue\n        /* \"--CODEGEN--\":8:17   */\n      dup1\n        /* \"--CODEGEN--\":5:7   */\n      iszero\n      tag_12\n      jumpi\n        /* \"--CODEGEN--\":30:31   */\n      0x0\n        /* \"--CODEGEN--\":27:28   */\n      dup1\n        /* \"--CODEGEN--\":20:32   */\n      revert\n        /* \"--CODEGEN--\":5:7   */\n    tag_12:\n        /* \"scripts/TicTacToe.sol\":372:390  uint public status */\n      pop\n      tag_13\n      jump(tag_14)\n    tag_13:\n      mload(0x40)\n      dup1\n      dup3\n      dup2\n      mstore\n      0x20\n      add\n      swap2\n      pop\n      pop\n      mload(0x40)\n      dup1\n      swap2\n      sub\n      swap1\n      return\n        /* \"scripts/TicTacToe.sol\":3919:3997  function showBoard() public view returns (uint[9]) {... */\n    tag_4:\n      callvalue\n        /* \"--CODEGEN--\":8:17   */\n      dup1\n        /* \"--CODEGEN--\":5:7   */\n      iszero\n      tag_15\n      jumpi\n        /* \"--CODEGEN--\":30:31   */\n      0x0\n        /* \"--CODEGEN--\":27:28   */\n      dup1\n        /* \"--CODEGEN--\":20:32   */\n      revert\n        /* \"--CODEGEN--\":5:7   */\n    tag_15:\n        /* \"scripts/TicTacToe.sol\":3919:3997  function showBoard() public view returns (uint[9]) {... */\n      pop\n      tag_16\n      jump(tag_17)\n    tag_16:\n      mload(0x40)\n      dup1\n      dup3\n      mul(0x20, 0x9)\n      dup1\n      dup4\n      dup4\n        /* \"--CODEGEN--\":23:24   */\n      0x0\n        /* \"--CODEGEN--\":8:108   */\n    tag_18:\n        /* \"--CODEGEN--\":33:36   */\n      dup4\n        /* \"--CODEGEN--\":30:31   */\n      dup2\n        /* \"--CODEGEN--\":27:37   */\n      lt\n        /* \"--CODEGEN--\":8:108   */\n      iszero\n      tag_19\n      jumpi\n        /* \"--CODEGEN--\":99:100   */\n      dup1\n        /* \"--CODEGEN--\":94:97   */\n      dup3\n        /* \"--CODEGEN--\":90:101   */\n      add\n        /* \"--CODEGEN--\":84:102   */\n      mload\n        /* \"--CODEGEN--\":80:81   */\n      dup2\n        /* \"--CODEGEN--\":75:78   */\n      dup5\n        /* \"--CODEGEN--\":71:82   */\n      add\n        /* \"--CODEGEN--\":64:103   */\n      mstore\n        /* \"--CODEGEN--\":52:54   */\n      0x20\n        /* \"--CODEGEN--\":49:50   */\n      dup2\n        /* \"--CODEGEN--\":45:55   */\n      add\n        /* \"--CODEGEN--\":40:55   */\n      swap1\n      pop\n        /* \"--CODEGEN--\":8:108   */\n      jump(tag_18)\n    tag_19:\n        /* \"--CODEGEN--\":12:26   */\n      pop\n        /* \"scripts/TicTacToe.sol\":3919:3997  function showBoard() public view returns (uint[9]) {... */\n      pop\n      pop\n      pop\n      swap1\n      pop\n      add\n      swap2\n      pop\n      pop\n      mload(0x40)\n      dup1\n      swap2\n      sub\n      swap1\n      return\n        /* \"scripts/TicTacToe.sol\":3724:3829  function move(uint pos) public _validMove(pos) _checkStatus(pos) _myTurn {... */\n    tag_5:\n      callvalue\n        /* \"--CODEGEN--\":8:17   */\n      dup1\n        /* \"--CODEGEN--\":5:7   */\n      iszero\n      tag_21\n      jumpi\n        /* \"--CODEGEN--\":30:31   */\n      0x0\n        /* \"--CODEGEN--\":27:28   */\n      dup1\n        /* \"--CODEGEN--\":20:32   */\n      revert\n        /* \"--CODEGEN--\":5:7   */\n    tag_21:\n        /* \"scripts/TicTacToe.sol\":3724:3829  function move(uint pos) public _validMove(pos) _checkStatus(pos) _myTurn {... */\n      pop\n      tag_22\n      0x4\n      dup1\n      calldatasize\n      sub\n      dup2\n      add\n      swap1\n      dup1\n      dup1\n      calldataload\n      swap1\n      0x20\n      add\n      swap1\n      swap3\n      swap2\n      swap1\n      pop\n      pop\n      pop\n      jump(tag_23)\n    tag_22:\n      stop\n        /* \"scripts/TicTacToe.sol\":238:258  uint public turn = 1 */\n    tag_6:\n      callvalue\n        /* \"--CODEGEN--\":8:17   */\n      dup1\n        /* \"--CODEGEN--\":5:7   */\n      iszero\n      tag_24\n      jumpi\n        /* \"--CODEGEN--\":30:31   */\n      0x0\n        /* \"--CODEGEN--\":27:28   */\n      dup1\n        /* \"--CODEGEN--\":20:32   */\n      revert\n        /* \"--CODEGEN--\":5:7   */\n    tag_24:\n        /* \"scripts/TicTacToe.sol\":238:258  uint public turn = 1 */\n      pop\n      tag_25\n      jump(tag_26)\n    tag_25:\n      mload(0x40)\n      dup1\n      dup3\n      dup2\n      mstore\n      0x20\n      add\n      swap2\n      pop\n      pop\n      mload(0x40)\n      dup1\n      swap2\n      sub\n      swap1\n      return\n        /* \"scripts/TicTacToe.sol\":3115:3233  function validMove(uint pos) public view returns (bool) {... */\n    tag_7:\n      callvalue\n        /* \"--CODEGEN--\":8:17   */\n      dup1\n        /* \"--CODEGEN--\":5:7   */\n      iszero\n      tag_27\n      jumpi\n        /* \"--CODEGEN--\":30:31   */\n      0x0\n        /* \"--CODEGEN--\":27:28   */\n      dup1\n        /* \"--CODEGEN--\":20:32   */\n      revert\n        /* \"--CODEGEN--\":5:7   */\n    tag_27:\n        /* \"scripts/TicTacToe.sol\":3115:3233  function validMove(uint pos) public view returns (bool) {... */\n      pop\n      tag_28\n      0x4\n      dup1\n      calldatasize\n      sub\n      dup2\n      add\n      swap1\n      dup1\n      dup1\n      calldataload\n      swap1\n      0x20\n      add\n      swap1\n      swap3\n      swap2\n      swap1\n      pop\n      pop\n      pop\n      jump(tag_29)\n    tag_28:\n      mload(0x40)\n      dup1\n      dup3\n      iszero\n      iszero\n      iszero\n      iszero\n      dup2\n      mstore\n      0x20\n      add\n      swap2\n      pop\n      pop\n      mload(0x40)\n      dup1\n      swap2\n      sub\n      swap1\n      return\n        /* \"scripts/TicTacToe.sol\":126:151  address[2] public players */\n    tag_8:\n      callvalue\n        /* \"--CODEGEN--\":8:17   */\n      dup1\n        /* \"--CODEGEN--\":5:7   */\n      iszero\n      tag_30\n      jumpi\n        /* \"--CODEGEN--\":30:31   */\n      0x0\n        /* \"--CODEGEN--\":27:28   */\n      dup1\n        /* \"--CODEGEN--\":20:32   */\n      revert\n        /* \"--CODEGEN--\":5:7   */\n    tag_30:\n        /* \"scripts/TicTacToe.sol\":126:151  address[2] public players */\n      pop\n      tag_31\n      0x4\n      dup1\n      calldatasize\n      sub\n      dup2\n      add\n      swap1\n      dup1\n      dup1\n      calldataload\n      swap1\n      0x20\n      add\n      swap1\n      swap3\n      swap2\n      swap1\n      pop\n      pop\n      pop\n      jump(tag_32)\n    tag_31:\n      mload(0x40)\n      dup1\n      dup3\n      0xffffffffffffffffffffffffffffffffffffffff\n      and\n      0xffffffffffffffffffffffffffffffffffffffff\n      and\n      dup2\n      mstore\n      0x20\n      add\n      swap2\n      pop\n      pop\n      mload(0x40)\n      dup1\n      swap2\n      sub\n      swap1\n      return\n        /* \"scripts/TicTacToe.sol\":2627:2723  function myTurn() public view returns (bool) {... */\n    tag_11:\n        /* \"scripts/TicTacToe.sol\":2666:2670  bool */\n      0x0\n        /* \"scripts/TicTacToe.sol\":2706:2716  msg.sender */\n      caller\n        /* \"scripts/TicTacToe.sol\":2687:2716  players[turn-1] == msg.sender */\n      0xffffffffffffffffffffffffffffffffffffffff\n      and\n        /* \"scripts/TicTacToe.sol\":2687:2694  players */\n      0x0\n        /* \"scripts/TicTacToe.sol\":2700:2701  1 */\n      0x1\n        /* \"scripts/TicTacToe.sol\":2695:2699  turn */\n      sload(0x2)\n        /* \"scripts/TicTacToe.sol\":2695:2701  turn-1 */\n      sub\n        /* \"scripts/TicTacToe.sol\":2687:2702  players[turn-1] */\n      0x2\n      dup2\n      lt\n      iszero\n      iszero\n      tag_34\n      jumpi\n      invalid\n    tag_34:\n      add\n      0x0\n      swap1\n      sload\n      swap1\n      0x100\n      exp\n      swap1\n      div\n      0xffffffffffffffffffffffffffffffffffffffff\n      and\n        /* \"scripts/TicTacToe.sol\":2687:2716  players[turn-1] == msg.sender */\n      0xffffffffffffffffffffffffffffffffffffffff\n      and\n      eq\n        /* \"scripts/TicTacToe.sol\":2680:2716  return players[turn-1] == msg.sender */\n      swap1\n      pop\n        /* \"scripts/TicTacToe.sol\":2627:2723  function myTurn() public view returns (bool) {... */\n      swap1\n      jump\t// out\n        /* \"scripts/TicTacToe.sol\":372:390  uint public status */\n    tag_14:\n      sload(0x3)\n      dup2\n      jump\t// out\n        /* \"scripts/TicTacToe.sol\":3919:3997  function showBoard() public view returns (uint[9]) {... */\n    tag_17:\n        /* \"scripts/TicTacToe.sol\":3961:3968  uint[9] */\n      tag_36\n      jump\t// in(tag_37)\n    tag_36:\n        /* \"scripts/TicTacToe.sol\":3985:3990  board */\n      0x4\n        /* \"scripts/TicTacToe.sol\":3978:3990  return board */\n      0x9\n      dup1\n      0x20\n      mul\n      mload(0x40)\n      swap1\n      dup2\n      add\n      0x40\n      mstore\n      dup1\n      swap3\n      swap2\n      swap1\n      dup3\n      0x9\n      dup1\n      iszero\n      tag_39\n      jumpi\n      0x20\n      mul\n      dup3\n      add\n      swap2\n    tag_40:\n      dup2\n      sload\n      dup2\n      mstore\n      0x20\n      add\n      swap1\n      0x1\n      add\n      swap1\n      dup1\n      dup4\n      gt\n      tag_40\n      jumpi\n    tag_39:\n      pop\n      pop\n      pop\n      pop\n      pop\n      swap1\n      pop\n        /* \"scripts/TicTacToe.sol\":3919:3997  function showBoard() public view returns (uint[9]) {... */\n      swap1\n      jump\t// out\n        /* \"scripts/TicTacToe.sol\":3724:3829  function move(uint pos) public _validMove(pos) _checkStatus(pos) _myTurn {... */\n    tag_23:\n        /* \"scripts/TicTacToe.sol\":3766:3769  pos */\n      dup1\n        /* \"scripts/TicTacToe.sol\":3407:3408  0 */\n      0x0\n        /* \"scripts/TicTacToe.sol\":3400:3403  pos */\n      dup2\n        /* \"scripts/TicTacToe.sol\":3400:3408  pos >= 0 */\n      lt\n      iszero\n        /* \"scripts/TicTacToe.sol\":3400:3419  pos >= 0 && pos < 9 */\n      dup1\n      iszero\n      tag_42\n      jumpi\n      pop\n        /* \"scripts/TicTacToe.sol\":3418:3419  9 */\n      0x9\n        /* \"scripts/TicTacToe.sol\":3412:3415  pos */\n      dup2\n        /* \"scripts/TicTacToe.sol\":3412:3419  pos < 9 */\n      lt\n        /* \"scripts/TicTacToe.sol\":3400:3419  pos >= 0 && pos < 9 */\n    tag_42:\n        /* \"scripts/TicTacToe.sol\":3392:3491  require(pos >= 0 && pos < 9,... */\n      iszero\n      iszero\n      tag_43\n      jumpi\n      mload(0x40)\n      0x8c379a000000000000000000000000000000000000000000000000000000000\n      dup2\n      mstore\n      0x4\n      add\n      dup1\n      dup1\n      0x20\n      add\n      dup3\n      dup2\n      sub\n      dup3\n      mstore\n      0x3b\n      dup2\n      mstore\n      0x20\n      add\n      dup1\n      0x494e56414c4944204d4f56453a204d6f766573206d7573742062652062657477\n      dup2\n      mstore\n      0x20\n      add\n      0x65656e20626f61726420706f736974696f6e73203020616e6420380000000000\n      dup2\n      mstore\n      pop\n      0x40\n      add\n      swap2\n      pop\n      pop\n      mload(0x40)\n      dup1\n      swap2\n      sub\n      swap1\n      revert\n    tag_43:\n        /* \"scripts/TicTacToe.sol\":3522:3523  0 */\n      0x0\n        /* \"scripts/TicTacToe.sol\":3508:3513  board */\n      0x4\n        /* \"scripts/TicTacToe.sol\":3514:3517  pos */\n      dup3\n        /* \"scripts/TicTacToe.sol\":3508:3518  board[pos] */\n      0x9\n      dup2\n      lt\n      iszero\n      iszero\n      tag_44\n      jumpi\n      invalid\n    tag_44:\n      add\n      sload\n        /* \"scripts/TicTacToe.sol\":3508:3523  board[pos] == 0 */\n      eq\n        /* \"scripts/TicTacToe.sol\":3500:3581  require(board[pos] == 0,... */\n      iszero\n      iszero\n      tag_46\n      jumpi\n      mload(0x40)\n      0x8c379a000000000000000000000000000000000000000000000000000000000\n      dup2\n      mstore\n      0x4\n      add\n      dup1\n      dup1\n      0x20\n      add\n      dup3\n      dup2\n      sub\n      dup3\n      mstore\n      0x2d\n      dup2\n      mstore\n      0x20\n      add\n      dup1\n      0x494e56414c4944204d4f56453a20426f61726420706f736974696f6e20616c72\n      dup2\n      mstore\n      0x20\n      add\n      0x65616479206f6363757069656400000000000000000000000000000000000000\n      dup2\n      mstore\n      pop\n      0x40\n      add\n      swap2\n      pop\n      pop\n      mload(0x40)\n      dup1\n      swap2\n      sub\n      swap1\n      revert\n    tag_46:\n        /* \"scripts/TicTacToe.sol\":3784:3787  pos */\n      dup2\n        /* \"scripts/TicTacToe.sol\":1763:1769  uint i */\n      0x0\n        /* \"scripts/TicTacToe.sol\":1960:1966  uint j */\n      dup1\n        /* \"scripts/TicTacToe.sol\":2345:2351  uint k */\n      0x0\n        /* \"scripts/TicTacToe.sol\":1673:1674  0 */\n      dup1\n        /* \"scripts/TicTacToe.sol\":1663:1669  status */\n      sload(0x3)\n        /* \"scripts/TicTacToe.sol\":1663:1674  status == 0 */\n      eq\n        /* \"scripts/TicTacToe.sol\":1655:1706  require(status == 0, \"GAME OVER: The game is over\") */\n      iszero\n      iszero\n      tag_48\n      jumpi\n      mload(0x40)\n      0x8c379a000000000000000000000000000000000000000000000000000000000\n      dup2\n      mstore\n      0x4\n      add\n      dup1\n      dup1\n      0x20\n      add\n      dup3\n      dup2\n      sub\n      dup3\n      mstore\n      0x1b\n      dup2\n      mstore\n      0x20\n      add\n      dup1\n      0x47414d45204f5645523a205468652067616d65206973206f7665720000000000\n      dup2\n      mstore\n      pop\n      0x20\n      add\n      swap2\n      pop\n      pop\n      mload(0x40)\n      dup1\n      swap2\n      sub\n      swap1\n      revert\n    tag_48:\n        /* \"scripts/TicTacToe.sol\":2891:2901  msg.sender */\n      caller\n        /* \"scripts/TicTacToe.sol\":2872:2901  players[turn-1] == msg.sender */\n      0xffffffffffffffffffffffffffffffffffffffff\n      and\n        /* \"scripts/TicTacToe.sol\":2872:2879  players */\n      0x0\n        /* \"scripts/TicTacToe.sol\":2885:2886  1 */\n      0x1\n        /* \"scripts/TicTacToe.sol\":2880:2884  turn */\n      sload(0x2)\n        /* \"scripts/TicTacToe.sol\":2880:2886  turn-1 */\n      sub\n        /* \"scripts/TicTacToe.sol\":2872:2887  players[turn-1] */\n      0x2\n      dup2\n      lt\n      iszero\n      iszero\n      tag_50\n      jumpi\n      invalid\n    tag_50:\n      add\n      0x0\n      swap1\n      sload\n      swap1\n      0x100\n      exp\n      swap1\n      div\n      0xffffffffffffffffffffffffffffffffffffffff\n      and\n        /* \"scripts/TicTacToe.sol\":2872:2901  players[turn-1] == msg.sender */\n      0xffffffffffffffffffffffffffffffffffffffff\n      and\n      eq\n        /* \"scripts/TicTacToe.sol\":2864:2902  require(players[turn-1] == msg.sender) */\n      iszero\n      iszero\n      tag_52\n      jumpi\n      0x0\n      dup1\n      revert\n    tag_52:\n        /* \"scripts/TicTacToe.sol\":3818:3822  turn */\n      sload(0x2)\n        /* \"scripts/TicTacToe.sol\":3805:3810  board */\n      0x4\n        /* \"scripts/TicTacToe.sol\":3811:3814  pos */\n      dup8\n        /* \"scripts/TicTacToe.sol\":3805:3815  board[pos] */\n      0x9\n      dup2\n      lt\n      iszero\n      iszero\n      tag_54\n      jumpi\n      invalid\n    tag_54:\n      add\n        /* \"scripts/TicTacToe.sol\":3805:3822  board[pos] = turn */\n      dup2\n      swap1\n      sstore\n      pop\n        /* \"scripts/TicTacToe.sol\":2934:2935  1 */\n      0x1\n        /* \"scripts/TicTacToe.sol\":2926:2930  turn */\n      sload(0x2)\n        /* \"scripts/TicTacToe.sol\":2926:2935  turn == 1 */\n      eq\n        /* \"scripts/TicTacToe.sol\":2926:2943  turn == 1 ? 2 : 1 */\n      tag_56\n      jumpi\n        /* \"scripts/TicTacToe.sol\":2942:2943  1 */\n      0x1\n        /* \"scripts/TicTacToe.sol\":2926:2943  turn == 1 ? 2 : 1 */\n      jump(tag_57)\n    tag_56:\n        /* \"scripts/TicTacToe.sol\":2938:2939  2 */\n      0x2\n        /* \"scripts/TicTacToe.sol\":2926:2943  turn == 1 ? 2 : 1 */\n    tag_57:\n        /* \"scripts/TicTacToe.sol\":2919:2943  turn = turn == 1 ? 2 : 1 */\n      0xff\n      and\n        /* \"scripts/TicTacToe.sol\":2919:2923  turn */\n      0x2\n        /* \"scripts/TicTacToe.sol\":2919:2943  turn = turn == 1 ? 2 : 1 */\n      dup2\n      swap1\n      sstore\n      pop\n        /* \"scripts/TicTacToe.sol\":1772:1773  0 */\n      0x0\n        /* \"scripts/TicTacToe.sol\":1763:1773  uint i = 0 */\n      swap3\n      pop\n        /* \"scripts/TicTacToe.sol\":1759:1915  for(uint i = 0; i < 9; i += 3){... */\n    tag_58:\n        /* \"scripts/TicTacToe.sol\":1779:1780  9 */\n      0x9\n        /* \"scripts/TicTacToe.sol\":1775:1776  i */\n      dup4\n        /* \"scripts/TicTacToe.sol\":1775:1780  i < 9 */\n      lt\n        /* \"scripts/TicTacToe.sol\":1759:1915  for(uint i = 0; i < 9; i += 3){... */\n      iszero\n      tag_59\n      jumpi\n        /* \"scripts/TicTacToe.sol\":1802:1849  _threeInALine(board[i], board[i+1], board[i+2]) */\n      tag_61\n        /* \"scripts/TicTacToe.sol\":1816:1821  board */\n      0x4\n        /* \"scripts/TicTacToe.sol\":1822:1823  i */\n      dup5\n        /* \"scripts/TicTacToe.sol\":1816:1824  board[i] */\n      0x9\n      dup2\n      lt\n      iszero\n      iszero\n      tag_62\n      jumpi\n      invalid\n    tag_62:\n      add\n      sload\n        /* \"scripts/TicTacToe.sol\":1826:1831  board */\n      0x4\n        /* \"scripts/TicTacToe.sol\":1834:1835  1 */\n      0x1\n        /* \"scripts/TicTacToe.sol\":1832:1833  i */\n      dup7\n        /* \"scripts/TicTacToe.sol\":1832:1835  i+1 */\n      add\n        /* \"scripts/TicTacToe.sol\":1826:1836  board[i+1] */\n      0x9\n      dup2\n      lt\n      iszero\n      iszero\n      tag_64\n      jumpi\n      invalid\n    tag_64:\n      add\n      sload\n        /* \"scripts/TicTacToe.sol\":1838:1843  board */\n      0x4\n        /* \"scripts/TicTacToe.sol\":1846:1847  2 */\n      0x2\n        /* \"scripts/TicTacToe.sol\":1844:1845  i */\n      dup8\n        /* \"scripts/TicTacToe.sol\":1844:1847  i+2 */\n      add\n        /* \"scripts/TicTacToe.sol\":1838:1848  board[i+2] */\n      0x9\n      dup2\n      lt\n      iszero\n      iszero\n      tag_66\n      jumpi\n      invalid\n    tag_66:\n      add\n      sload\n        /* \"scripts/TicTacToe.sol\":1802:1815  _threeInALine */\n      tag_68\n        /* \"scripts/TicTacToe.sol\":1802:1849  _threeInALine(board[i], board[i+1], board[i+2]) */\n      jump\t// in\n    tag_61:\n        /* \"scripts/TicTacToe.sol\":1802:1866  _threeInALine(board[i], board[i+1], board[i+2]) && board[i] != 0 */\n      dup1\n      iszero\n      tag_69\n      jumpi\n      pop\n        /* \"scripts/TicTacToe.sol\":1865:1866  0 */\n      0x0\n        /* \"scripts/TicTacToe.sol\":1853:1858  board */\n      0x4\n        /* \"scripts/TicTacToe.sol\":1859:1860  i */\n      dup5\n        /* \"scripts/TicTacToe.sol\":1853:1861  board[i] */\n      0x9\n      dup2\n      lt\n      iszero\n      iszero\n      tag_70\n      jumpi\n      invalid\n    tag_70:\n      add\n      sload\n        /* \"scripts/TicTacToe.sol\":1853:1866  board[i] != 0 */\n      eq\n      iszero\n        /* \"scripts/TicTacToe.sol\":1802:1866  _threeInALine(board[i], board[i+1], board[i+2]) && board[i] != 0 */\n    tag_69:\n        /* \"scripts/TicTacToe.sol\":1799:1907  if(_threeInALine(board[i], board[i+1], board[i+2]) && board[i] != 0){... */\n      iszero\n      tag_72\n      jumpi\n        /* \"scripts/TicTacToe.sol\":1888:1893  board */\n      0x4\n        /* \"scripts/TicTacToe.sol\":1894:1895  i */\n      dup4\n        /* \"scripts/TicTacToe.sol\":1888:1896  board[i] */\n      0x9\n      dup2\n      lt\n      iszero\n      iszero\n      tag_73\n      jumpi\n      invalid\n    tag_73:\n      add\n      sload\n        /* \"scripts/TicTacToe.sol\":1879:1885  status */\n      0x3\n        /* \"scripts/TicTacToe.sol\":1879:1896  status = board[i] */\n      dup2\n      swap1\n      sstore\n      pop\n        /* \"scripts/TicTacToe.sol\":1799:1907  if(_threeInALine(board[i], board[i+1], board[i+2]) && board[i] != 0){... */\n    tag_72:\n        /* \"scripts/TicTacToe.sol\":1787:1788  3 */\n      0x3\n        /* \"scripts/TicTacToe.sol\":1782:1788  i += 3 */\n      dup4\n      add\n      swap3\n      pop\n        /* \"scripts/TicTacToe.sol\":1759:1915  for(uint i = 0; i < 9; i += 3){... */\n      jump(tag_58)\n    tag_59:\n        /* \"scripts/TicTacToe.sol\":1969:1970  0 */\n      0x0\n        /* \"scripts/TicTacToe.sol\":1960:1970  uint j = 0 */\n      swap2\n      pop\n        /* \"scripts/TicTacToe.sol\":1956:2109  for(uint j = 0; j < 3; j++){... */\n    tag_75:\n        /* \"scripts/TicTacToe.sol\":1976:1977  3 */\n      0x3\n        /* \"scripts/TicTacToe.sol\":1972:1973  j */\n      dup3\n        /* \"scripts/TicTacToe.sol\":1972:1977  j < 3 */\n      lt\n        /* \"scripts/TicTacToe.sol\":1956:2109  for(uint j = 0; j < 3; j++){... */\n      iszero\n      tag_76\n      jumpi\n        /* \"scripts/TicTacToe.sol\":1996:2043  _threeInALine(board[j], board[j+3], board[j+6]) */\n      tag_78\n        /* \"scripts/TicTacToe.sol\":2010:2015  board */\n      0x4\n        /* \"scripts/TicTacToe.sol\":2016:2017  j */\n      dup4\n        /* \"scripts/TicTacToe.sol\":2010:2018  board[j] */\n      0x9\n      dup2\n      lt\n      iszero\n      iszero\n      tag_79\n      jumpi\n      invalid\n    tag_79:\n      add\n      sload\n        /* \"scripts/TicTacToe.sol\":2020:2025  board */\n      0x4\n        /* \"scripts/TicTacToe.sol\":2028:2029  3 */\n      0x3\n        /* \"scripts/TicTacToe.sol\":2026:2027  j */\n      dup6\n        /* \"scripts/TicTacToe.sol\":2026:2029  j+3 */\n      add\n        /* \"scripts/TicTacToe.sol\":2020:2030  board[j+3] */\n      0x9\n      dup2\n      lt\n      iszero\n      iszero\n      tag_81\n      jumpi\n      invalid\n    tag_81:\n      add\n      sload\n        /* \"scripts/TicTacToe.sol\":2032:2037  board */\n      0x4\n        /* \"scripts/TicTacToe.sol\":2040:2041  6 */\n      0x6\n        /* \"scripts/TicTacToe.sol\":2038:2039  j */\n      dup7\n        /* \"scripts/TicTacToe.sol\":2038:2041  j+6 */\n      add\n        /* \"scripts/TicTacToe.sol\":2032:2042  board[j+6] */\n      0x9\n      dup2\n      lt\n      iszero\n      iszero\n      tag_83\n      jumpi\n      invalid\n    tag_83:\n      add\n      sload\n        /* \"scripts/TicTacToe.sol\":1996:2009  _threeInALine */\n      tag_68\n        /* \"scripts/TicTacToe.sol\":1996:2043  _threeInALine(board[j], board[j+3], board[j+6]) */\n      jump\t// in\n    tag_78:\n        /* \"scripts/TicTacToe.sol\":1996:2060  _threeInALine(board[j], board[j+3], board[j+6]) && board[i] != 0 */\n      dup1\n      iszero\n      tag_85\n      jumpi\n      pop\n        /* \"scripts/TicTacToe.sol\":2059:2060  0 */\n      0x0\n        /* \"scripts/TicTacToe.sol\":2047:2052  board */\n      0x4\n        /* \"scripts/TicTacToe.sol\":2053:2054  i */\n      dup5\n        /* \"scripts/TicTacToe.sol\":2047:2055  board[i] */\n      0x9\n      dup2\n      lt\n      iszero\n      iszero\n      tag_86\n      jumpi\n      invalid\n    tag_86:\n      add\n      sload\n        /* \"scripts/TicTacToe.sol\":2047:2060  board[i] != 0 */\n      eq\n      iszero\n        /* \"scripts/TicTacToe.sol\":1996:2060  _threeInALine(board[j], board[j+3], board[j+6]) && board[i] != 0 */\n    tag_85:\n        /* \"scripts/TicTacToe.sol\":1993:2101  if(_threeInALine(board[j], board[j+3], board[j+6]) && board[i] != 0){... */\n      iszero\n      tag_88\n      jumpi\n        /* \"scripts/TicTacToe.sol\":2082:2087  board */\n      0x4\n        /* \"scripts/TicTacToe.sol\":2088:2089  j */\n      dup3\n        /* \"scripts/TicTacToe.sol\":2082:2090  board[j] */\n      0x9\n      dup2\n      lt\n      iszero\n      iszero\n      tag_89\n      jumpi\n      invalid\n    tag_89:\n      add\n      sload\n        /* \"scripts/TicTacToe.sol\":2073:2079  status */\n      0x3\n        /* \"scripts/TicTacToe.sol\":2073:2090  status = board[j] */\n      dup2\n      swap1\n      sstore\n      pop\n        /* \"scripts/TicTacToe.sol\":1993:2101  if(_threeInALine(board[j], board[j+3], board[j+6]) && board[i] != 0){... */\n    tag_88:\n        /* \"scripts/TicTacToe.sol\":1979:1982  j++ */\n      dup2\n      dup1\n      0x1\n      add\n      swap3\n      pop\n      pop\n        /* \"scripts/TicTacToe.sol\":1956:2109  for(uint j = 0; j < 3; j++){... */\n      jump(tag_75)\n    tag_76:\n        /* \"scripts/TicTacToe.sol\":2146:2189  _threeInALine(board[0], board[4], board[8]) */\n      tag_91\n        /* \"scripts/TicTacToe.sol\":2160:2165  board */\n      0x4\n        /* \"scripts/TicTacToe.sol\":2166:2167  0 */\n      0x0\n        /* \"scripts/TicTacToe.sol\":2160:2168  board[0] */\n      0x9\n      dup2\n      lt\n      iszero\n      iszero\n      tag_92\n      jumpi\n      invalid\n    tag_92:\n      add\n      sload\n        /* \"scripts/TicTacToe.sol\":2170:2175  board */\n      0x4\n        /* \"scripts/TicTacToe.sol\":2176:2177  4 */\n      dup1\n        /* \"scripts/TicTacToe.sol\":2170:2178  board[4] */\n      0x9\n      dup2\n      lt\n      iszero\n      iszero\n      tag_94\n      jumpi\n      invalid\n    tag_94:\n      add\n      sload\n        /* \"scripts/TicTacToe.sol\":2180:2185  board */\n      0x4\n        /* \"scripts/TicTacToe.sol\":2186:2187  8 */\n      0x8\n        /* \"scripts/TicTacToe.sol\":2180:2188  board[8] */\n      0x9\n      dup2\n      lt\n      iszero\n      iszero\n      tag_96\n      jumpi\n      invalid\n    tag_96:\n      add\n      sload\n        /* \"scripts/TicTacToe.sol\":2146:2159  _threeInALine */\n      tag_68\n        /* \"scripts/TicTacToe.sol\":2146:2189  _threeInALine(board[0], board[4], board[8]) */\n      jump\t// in\n    tag_91:\n        /* \"scripts/TicTacToe.sol\":2146:2246  _threeInALine(board[0], board[4], board[8]) || ... */\n      dup1\n      tag_98\n      jumpi\n      pop\n        /* \"scripts/TicTacToe.sol\":2203:2246  _threeInALine(board[2], board[4], board[6]) */\n      tag_99\n        /* \"scripts/TicTacToe.sol\":2217:2222  board */\n      0x4\n        /* \"scripts/TicTacToe.sol\":2223:2224  2 */\n      0x2\n        /* \"scripts/TicTacToe.sol\":2217:2225  board[2] */\n      0x9\n      dup2\n      lt\n      iszero\n      iszero\n      tag_100\n      jumpi\n      invalid\n    tag_100:\n      add\n      sload\n        /* \"scripts/TicTacToe.sol\":2227:2232  board */\n      0x4\n        /* \"scripts/TicTacToe.sol\":2233:2234  4 */\n      dup1\n        /* \"scripts/TicTacToe.sol\":2227:2235  board[4] */\n      0x9\n      dup2\n      lt\n      iszero\n      iszero\n      tag_102\n      jumpi\n      invalid\n    tag_102:\n      add\n      sload\n        /* \"scripts/TicTacToe.sol\":2237:2242  board */\n      0x4\n        /* \"scripts/TicTacToe.sol\":2243:2244  6 */\n      0x6\n        /* \"scripts/TicTacToe.sol\":2237:2245  board[6] */\n      0x9\n      dup2\n      lt\n      iszero\n      iszero\n      tag_104\n      jumpi\n      invalid\n    tag_104:\n      add\n      sload\n        /* \"scripts/TicTacToe.sol\":2203:2216  _threeInALine */\n      tag_68\n        /* \"scripts/TicTacToe.sol\":2203:2246  _threeInALine(board[2], board[4], board[6]) */\n      jump\t// in\n    tag_99:\n        /* \"scripts/TicTacToe.sol\":2146:2246  _threeInALine(board[0], board[4], board[8]) || ... */\n    tag_98:\n        /* \"scripts/TicTacToe.sol\":2145:2264  (_threeInALine(board[0], board[4], board[8]) || ... */\n      dup1\n      iszero\n      tag_106\n      jumpi\n      pop\n        /* \"scripts/TicTacToe.sol\":2263:2264  0 */\n      0x0\n        /* \"scripts/TicTacToe.sol\":2251:2256  board */\n      0x4\n        /* \"scripts/TicTacToe.sol\":2257:2258  4 */\n      dup1\n        /* \"scripts/TicTacToe.sol\":2251:2259  board[4] */\n      0x9\n      dup2\n      lt\n      iszero\n      iszero\n      tag_107\n      jumpi\n      invalid\n    tag_107:\n      add\n      sload\n        /* \"scripts/TicTacToe.sol\":2251:2264  board[4] != 0 */\n      eq\n      iszero\n        /* \"scripts/TicTacToe.sol\":2145:2264  (_threeInALine(board[0], board[4], board[8]) || ... */\n    tag_106:\n        /* \"scripts/TicTacToe.sol\":2142:2303  if((_threeInALine(board[0], board[4], board[8]) || ... */\n      iszero\n      tag_109\n      jumpi\n        /* \"scripts/TicTacToe.sol\":2286:2291  board */\n      0x4\n        /* \"scripts/TicTacToe.sol\":2292:2293  4 */\n      dup1\n        /* \"scripts/TicTacToe.sol\":2286:2294  board[4] */\n      0x9\n      dup2\n      lt\n      iszero\n      iszero\n      tag_110\n      jumpi\n      invalid\n    tag_110:\n      add\n      sload\n        /* \"scripts/TicTacToe.sol\":2277:2283  status */\n      0x3\n        /* \"scripts/TicTacToe.sol\":2277:2294  status = board[4] */\n      dup2\n      swap1\n      sstore\n      pop\n        /* \"scripts/TicTacToe.sol\":2142:2303  if((_threeInALine(board[0], board[4], board[8]) || ... */\n    tag_109:\n        /* \"scripts/TicTacToe.sol\":2354:2355  0 */\n      0x0\n        /* \"scripts/TicTacToe.sol\":2345:2355  uint k = 0 */\n      swap1\n      pop\n        /* \"scripts/TicTacToe.sol\":2341:2481  for(uint k = 0; k < 9; k++){... */\n    tag_112:\n        /* \"scripts/TicTacToe.sol\":2361:2362  9 */\n      0x9\n        /* \"scripts/TicTacToe.sol\":2357:2358  k */\n      dup2\n        /* \"scripts/TicTacToe.sol\":2357:2362  k < 9 */\n      lt\n        /* \"scripts/TicTacToe.sol\":2341:2481  for(uint k = 0; k < 9; k++){... */\n      iszero\n      tag_113\n      jumpi\n        /* \"scripts/TicTacToe.sol\":2393:2394  0 */\n      0x0\n        /* \"scripts/TicTacToe.sol\":2381:2386  board */\n      0x4\n        /* \"scripts/TicTacToe.sol\":2387:2388  k */\n      dup3\n        /* \"scripts/TicTacToe.sol\":2381:2389  board[k] */\n      0x9\n      dup2\n      lt\n      iszero\n      iszero\n      tag_115\n      jumpi\n      invalid\n    tag_115:\n      add\n      sload\n        /* \"scripts/TicTacToe.sol\":2381:2394  board[k] == 0 */\n      eq\n        /* \"scripts/TicTacToe.sol\":2378:2473  if(board[k] == 0){... */\n      iszero\n      tag_117\n      jumpi\n        /* \"scripts/TicTacToe.sol\":2407:2412  break */\n      jump(tag_113)\n        /* \"scripts/TicTacToe.sol\":2378:2473  if(board[k] == 0){... */\n    tag_117:\n        /* \"scripts/TicTacToe.sol\":2438:2439  8 */\n      0x8\n        /* \"scripts/TicTacToe.sol\":2433:2434  k */\n      dup2\n        /* \"scripts/TicTacToe.sol\":2433:2439  k == 8 */\n      eq\n        /* \"scripts/TicTacToe.sol\":2429:2473  if (k == 8){... */\n      iszero\n      tag_119\n      jumpi\n        /* \"scripts/TicTacToe.sol\":2461:2462  3 */\n      0x3\n        /* \"scripts/TicTacToe.sol\":2452:2458  status */\n      dup1\n        /* \"scripts/TicTacToe.sol\":2452:2462  status = 3 */\n      dup2\n      swap1\n      sstore\n      pop\n        /* \"scripts/TicTacToe.sol\":2429:2473  if (k == 8){... */\n    tag_119:\n        /* \"scripts/TicTacToe.sol\":2364:2367  k++ */\n      dup1\n      dup1\n      0x1\n      add\n      swap2\n      pop\n      pop\n        /* \"scripts/TicTacToe.sol\":2341:2481  for(uint k = 0; k < 9; k++){... */\n      jump(tag_112)\n    tag_113:\n        /* \"scripts/TicTacToe.sol\":3596:3597  _ */\n      pop\n      pop\n      pop\n      pop\n        /* \"scripts/TicTacToe.sol\":3724:3829  function move(uint pos) public _validMove(pos) _checkStatus(pos) _myTurn {... */\n      pop\n      pop\n      jump\t// out\n        /* \"scripts/TicTacToe.sol\":238:258  uint public turn = 1 */\n    tag_26:\n      sload(0x2)\n      dup2\n      jump\t// out\n        /* \"scripts/TicTacToe.sol\":3115:3233  function validMove(uint pos) public view returns (bool) {... */\n    tag_29:\n        /* \"scripts/TicTacToe.sol\":3165:3169  bool */\n      0x0\n        /* \"scripts/TicTacToe.sol\":3200:3201  0 */\n      dup1\n        /* \"scripts/TicTacToe.sol\":3186:3191  board */\n      0x4\n        /* \"scripts/TicTacToe.sol\":3192:3195  pos */\n      dup4\n        /* \"scripts/TicTacToe.sol\":3186:3196  board[pos] */\n      0x9\n      dup2\n      lt\n      iszero\n      iszero\n      tag_121\n      jumpi\n      invalid\n    tag_121:\n      add\n      sload\n        /* \"scripts/TicTacToe.sol\":3186:3201  board[pos] == 0 */\n      eq\n        /* \"scripts/TicTacToe.sol\":3186:3226  board[pos] == 0 && (pos >= 0 && pos < 9) */\n      dup1\n      iszero\n      tag_123\n      jumpi\n      pop\n        /* \"scripts/TicTacToe.sol\":3213:3214  0 */\n      0x0\n        /* \"scripts/TicTacToe.sol\":3206:3209  pos */\n      dup3\n        /* \"scripts/TicTacToe.sol\":3206:3214  pos >= 0 */\n      lt\n      iszero\n        /* \"scripts/TicTacToe.sol\":3206:3225  pos >= 0 && pos < 9 */\n      dup1\n      iszero\n      tag_124\n      jumpi\n      pop\n        /* \"scripts/TicTacToe.sol\":3224:3225  9 */\n      0x9\n        /* \"scripts/TicTacToe.sol\":3218:3221  pos */\n      dup3\n        /* \"scripts/TicTacToe.sol\":3218:3225  pos < 9 */\n      lt\n        /* \"scripts/TicTacToe.sol\":3206:3225  pos >= 0 && pos < 9 */\n    tag_124:\n        /* \"scripts/TicTacToe.sol\":3186:3226  board[pos] == 0 && (pos >= 0 && pos < 9) */\n    tag_123:\n        /* \"scripts/TicTacToe.sol\":3179:3226  return board[pos] == 0 && (pos >= 0 && pos < 9) */\n      swap1\n      pop\n        /* \"scripts/TicTacToe.sol\":3115:3233  function validMove(uint pos) public view returns (bool) {... */\n      swap2\n      swap1\n      pop\n      jump\t// out\n        /* \"scripts/TicTacToe.sol\":126:151  address[2] public players */\n    tag_32:\n      0x0\n      dup2\n      0x2\n      dup2\n      lt\n      iszero\n      iszero\n      tag_125\n      jumpi\n      invalid\n    tag_125:\n      add\n      0x0\n      swap2\n      pop\n      sload\n      swap1\n      0x100\n      exp\n      swap1\n      div\n      0xffffffffffffffffffffffffffffffffffffffff\n      and\n      dup2\n      jump\t// out\n        /* \"scripts/TicTacToe.sol\":1007:1121  function _threeInALine(uint a, uint b, uint c) private view returns (bool){... */\n    tag_68:\n        /* \"scripts/TicTacToe.sol\":1076:1080  bool */\n      0x0\n        /* \"scripts/TicTacToe.sol\":1103:1104  b */\n      dup3\n        /* \"scripts/TicTacToe.sol\":1098:1099  a */\n      dup5\n        /* \"scripts/TicTacToe.sol\":1098:1104  a == b */\n      eq\n        /* \"scripts/TicTacToe.sol\":1098:1114  a == b && b == c */\n      dup1\n      iszero\n      tag_128\n      jumpi\n      pop\n        /* \"scripts/TicTacToe.sol\":1113:1114  c */\n      dup2\n        /* \"scripts/TicTacToe.sol\":1108:1109  b */\n      dup4\n        /* \"scripts/TicTacToe.sol\":1108:1114  b == c */\n      eq\n        /* \"scripts/TicTacToe.sol\":1098:1114  a == b && b == c */\n    tag_128:\n        /* \"scripts/TicTacToe.sol\":1091:1114  return a == b && b == c */\n      swap1\n      pop\n        /* \"scripts/TicTacToe.sol\":1007:1121  function _threeInALine(uint a, uint b, uint c) private view returns (bool){... */\n      swap4\n      swap3\n      pop\n      pop\n      pop\n      jump\t// out\n        /* \"scripts/TicTacToe.sol\":101:3999  contract TicTacToe {... */\n    tag_37:\n      0x120\n      mload(0x40)\n      swap1\n      dup2\n      add\n      0x40\n      mstore\n      dup1\n      0x9\n      swap1\n        /* \"--CODEGEN--\":29:31   */\n      0x20\n        /* \"--CODEGEN--\":21:27   */\n      dup3\n        /* \"--CODEGEN--\":17:32   */\n      mul\n        /* \"--CODEGEN--\":117:121   */\n      dup1\n        /* \"--CODEGEN--\":105:115   */\n      codesize\n        /* \"--CODEGEN--\":97:103   */\n      dup4\n        /* \"--CODEGEN--\":88:122   */\n      codecopy\n        /* \"--CODEGEN--\":148:152   */\n      dup1\n        /* \"--CODEGEN--\":140:146   */\n      dup3\n        /* \"--CODEGEN--\":136:153   */\n      add\n        /* \"--CODEGEN--\":126:153   */\n      swap2\n      pop\n        /* \"--CODEGEN--\":0:157   */\n      pop\n        /* \"scripts/TicTacToe.sol\":101:3999  contract TicTacToe {... */\n      swap1\n      pop\n      pop\n      swap1\n      jump\t// out\n\n    auxdata: 0xa165627a7a72305820abf7195fe65f20c3a2e29a03549fbe9d184e236901eada8eda50ef6a51b1205b0029\n}\n",
				"bytecode": {
					"linkReferences": {},
					"object": "6080604052600160025534801561001557600080fd5b50604051602080610ab6833981018060405281019080805190602001909291905050508073ffffffffffffffffffffffffffffffffffffffff163373ffffffffffffffffffffffffffffffffffffffff16141515156100dc576040517f08c379a000000000000000000000000000000000000000000000000000000000815260040180806020018281038252600c8152602001807f4e6f2073656c6620706c6179000000000000000000000000000000000000000081525060200191505060405180910390fd5b60408051908101604052803373ffffffffffffffffffffffffffffffffffffffff1673ffffffffffffffffffffffffffffffffffffffff1681526020018273ffffffffffffffffffffffffffffffffffffffff1673ffffffffffffffffffffffffffffffffffffffff168152506000906002610159929190610160565b5050610220565b82600281019282156101cc579160200282015b828111156101cb5782518260006101000a81548173ffffffffffffffffffffffffffffffffffffffff021916908373ffffffffffffffffffffffffffffffffffffffff16021790555091602001919060010190610173565b5b5090506101d991906101dd565b5090565b61021d91905b8082111561021957600081816101000a81549073ffffffffffffffffffffffffffffffffffffffff0219169055506001016101e3565b5090565b90565b6108878061022f6000396000f300608060405260043610610083576000357c0100000000000000000000000000000000000000000000000000000000900463ffffffff1680631ed4557f14610088578063200d2ed2146100b757806349a9798d146100e257806387cb15f7146101355780638b29990314610162578063b4c95a5c1461018d578063f71d96cb146101d2575b600080fd5b34801561009457600080fd5b5061009d61023f565b604051808215151515815260200191505060405180910390f35b3480156100c357600080fd5b506100cc6102aa565b6040518082815260200191505060405180910390f35b3480156100ee57600080fd5b506100f76102b0565b6040518082600960200280838360005b83811015610122578082015181840152602081019050610107565b5050505090500191505060405180910390f35b34801561014157600080fd5b50610160600480360381019080803590602001909291905050506102fb565b005b34801561016e57600080fd5b506101776107ae565b6040518082815260200191505060405180910390f35b34801561019957600080fd5b506101b8600480360381019080803590602001909291905050506107b4565b604051808215151515815260200191505060405180910390f35b3480156101de57600080fd5b506101fd600480360381019080803590602001909291905050506107e9565b604051808273ffffffffffffffffffffffffffffffffffffffff1673ffffffffffffffffffffffffffffffffffffffff16815260200191505060405180910390f35b60003373ffffffffffffffffffffffffffffffffffffffff16600060016002540360028110151561026c57fe5b0160009054906101000a900473ffffffffffffffffffffffffffffffffffffffff1673ffffffffffffffffffffffffffffffffffffffff1614905090565b60035481565b6102b8610837565b60046009806020026040519081016040528092919082600980156102f1576020028201915b8154815260200190600101908083116102dd575b5050505050905090565b806000811015801561030d5750600981105b15156103a7576040517f08c379a000000000000000000000000000000000000000000000000000000000815260040180806020018281038252603b8152602001807f494e56414c4944204d4f56453a204d6f766573206d757374206265206265747781526020017f65656e20626f61726420706f736974696f6e73203020616e642038000000000081525060400191505060405180910390fd5b60006004826009811015156103b857fe5b0154141515610455576040517f08c379a000000000000000000000000000000000000000000000000000000000815260040180806020018281038252602d8152602001807f494e56414c4944204d4f56453a20426f61726420706f736974696f6e20616c7281526020017f65616479206f636375706965640000000000000000000000000000000000000081525060400191505060405180910390fd5b816000806000806003541415156104d4576040517f08c379a000000000000000000000000000000000000000000000000000000000815260040180806020018281038252601b8152602001807f47414d45204f5645523a205468652067616d65206973206f766572000000000081525060200191505060405180910390fd5b3373ffffffffffffffffffffffffffffffffffffffff1660006001600254036002811015156104ff57fe5b0160009054906101000a900473ffffffffffffffffffffffffffffffffffffffff1673ffffffffffffffffffffffffffffffffffffffff1614151561054357600080fd5b60025460048760098110151561055557fe5b018190555060016002541461056b57600161056e565b60025b60ff16600281905550600092505b600983101561060b576105c660048460098110151561059757fe5b01546004600186016009811015156105ab57fe5b01546004600287016009811015156105bf57fe5b015461081e565b80156105e3575060006004846009811015156105de57fe5b015414155b15610600576004836009811015156105f757fe5b01546003819055505b60038301925061057c565b600091505b60038210156106a15761065a60048360098110151561062b57fe5b015460046003850160098110151561063f57fe5b015460046006860160098110151561065357fe5b015461081e565b80156106775750600060048460098110151561067257fe5b015414155b156106945760048260098110151561068b57fe5b01546003819055505b8180600101925050610610565b6106de600460006009811015156106b457fe5b01546004806009811015156106c557fe5b0154600460086009811015156106d757fe5b015461081e565b806107225750610721600460026009811015156106f757fe5b015460048060098110151561070857fe5b01546004600660098110151561071a57fe5b015461081e565b5b801561073f5750600060048060098110151561073a57fe5b015414155b1561075c5760048060098110151561075357fe5b01546003819055505b600090505b60098110156107a657600060048260098110151561077b57fe5b01541415610788576107a6565b600881141561079957600380819055505b8080600101915050610761565b505050505050565b60025481565b6000806004836009811015156107c657fe5b01541480156107e25750600082101580156107e15750600982105b5b9050919050565b6000816002811015156107f857fe5b016000915054906101000a900473ffffffffffffffffffffffffffffffffffffffff1681565b6000828414801561082e57508183145b90509392505050565b610120604051908101604052806009906020820280388339808201915050905050905600a165627a7a72305820abf7195fe65f20c3a2e29a03549fbe9d184e236901eada8eda50ef6a51b1205b0029",
					"opcodes": "PUSH1 0x80 PUSH1 0x40 MSTORE PUSH1 0x1 PUSH1 0x2 SSTORE CALLVALUE DUP1 ISZERO PUSH2 0x15 JUMPI PUSH1 0x0 DUP1 REVERT JUMPDEST POP PUSH1 0x40 MLOAD PUSH1 0x20 DUP1 PUSH2 0xAB6 DUP4 CODECOPY DUP2 ADD DUP1 PUSH1 0x40 MSTORE DUP2 ADD SWAP1 DUP1 DUP1 MLOAD SWAP1 PUSH1 0x20 ADD SWAP1 SWAP3 SWAP2 SWAP1 POP POP POP DUP1 PUSH20 0xFFFFFFFFFFFFFFFFFFFFFFFFFFFFFFFFFFFFFFFF AND CALLER PUSH20 0xFFFFFFFFFFFFFFFFFFFFFFFFFFFFFFFFFFFFFFFF AND EQ ISZERO ISZERO ISZERO PUSH2 0xDC JUMPI PUSH1 0x40 MLOAD PUSH32 0x8C379A000000000000000000000000000000000000000000000000000000000 DUP2 MSTORE PUSH1 0x4 ADD DUP1 DUP1 PUSH1 0x20 ADD DUP3 DUP2 SUB DUP3 MSTORE PUSH1 0xC DUP2 MSTORE PUSH1 0x20 ADD DUP1 PUSH32 0x4E6F2073656C6620706C61790000000000000000000000000000000000000000 DUP2 MSTORE POP PUSH1 0x20 ADD SWAP2 POP POP PUSH1 0x40 MLOAD DUP1 SWAP2 SUB SWAP1 REVERT JUMPDEST PUSH1 0x40 DUP1 MLOAD SWAP1 DUP2 ADD PUSH1 0x40 MSTORE DUP1 CALLER PUSH20 0xFFFFFFFFFFFFFFFFFFFFFFFFFFFFFFFFFFFFFFFF AND PUSH20 0xFFFFFFFFFFFFFFFFFFFFFFFFFFFFFFFFFFFFFFFF AND DUP2 MSTORE PUSH1 0x20 ADD DUP3 PUSH20 0xFFFFFFFFFFFFFFFFFFFFFFFFFFFFFFFFFFFFFFFF AND PUSH20 0xFFFFFFFFFFFFFFFFFFFFFFFFFFFFFFFFFFFFFFFF AND DUP2 MSTORE POP PUSH1 0x0 SWAP1 PUSH1 0x2 PUSH2 0x159 SWAP3 SWAP2 SWAP1 PUSH2 0x160 JUMP JUMPDEST POP POP PUSH2 0x220 JUMP JUMPDEST DUP3 PUSH1 0x2 DUP2 ADD SWAP3 DUP3 ISZERO PUSH2 0x1CC JUMPI SWAP2 PUSH1 0x20 MUL DUP3 ADD JUMPDEST DUP3 DUP2 GT ISZERO PUSH2 0x1CB JUMPI DUP3 MLOAD DUP3 PUSH1 0x0 PUSH2 0x100 EXP DUP2 SLOAD DUP2 PUSH20 0xFFFFFFFFFFFFFFFFFFFFFFFFFFFFFFFFFFFFFFFF MUL NOT AND SWAP1 DUP4 PUSH20 0xFFFFFFFFFFFFFFFFFFFFFFFFFFFFFFFFFFFFFFFF AND MUL OR SWAP1 SSTORE POP SWAP2 PUSH1 0x20 ADD SWAP2 SWAP1 PUSH1 0x1 ADD SWAP1 PUSH2 0x173 JUMP JUMPDEST JUMPDEST POP SWAP1 POP PUSH2 0x1D9 SWAP2 SWAP1 PUSH2 0x1DD JUMP JUMPDEST POP SWAP1 JUMP JUMPDEST PUSH2 0x21D SWAP2 SWAP1 JUMPDEST DUP1 DUP3 GT ISZERO PUSH2 0x219 JUMPI PUSH1 0x0 DUP2 DUP2 PUSH2 0x100 EXP DUP2 SLOAD SWAP1 PUSH20 0xFFFFFFFFFFFFFFFFFFFFFFFFFFFFFFFFFFFFFFFF MUL NOT AND SWAP1 SSTORE POP PUSH1 0x1 ADD PUSH2 0x1E3 JUMP JUMPDEST POP SWAP1 JUMP JUMPDEST SWAP1 JUMP JUMPDEST PUSH2 0x887 DUP1 PUSH2 0x22F PUSH1 0x0 CODECOPY PUSH1 0x0 RETURN STOP PUSH1 0x80 PUSH1 0x40 MSTORE PUSH1 0x4 CALLDATASIZE LT PUSH2 0x83 JUMPI PUSH1 0x0 CALLDATALOAD PUSH29 0x100000000000000000000000000000000000000000000000000000000 SWAP1 DIV PUSH4 0xFFFFFFFF AND DUP1 PUSH4 0x1ED4557F EQ PUSH2 0x88 JUMPI DUP1 PUSH4 0x200D2ED2 EQ PUSH2 0xB7 JUMPI DUP1 PUSH4 0x49A9798D EQ PUSH2 0xE2 JUMPI DUP1 PUSH4 0x87CB15F7 EQ PUSH2 0x135 JUMPI DUP1 PUSH4 0x8B299903 EQ PUSH2 0x162 JUMPI DUP1 PUSH4 0xB4C95A5C EQ PUSH2 0x18D JUMPI DUP1 PUSH4 0xF71D96CB EQ PUSH2 0x1D2 JUMPI JUMPDEST PUSH1 0x0 DUP1 REVERT JUMPDEST CALLVALUE DUP1 ISZERO PUSH2 0x94 JUMPI PUSH1 0x0 DUP1 REVERT JUMPDEST POP PUSH2 0x9D PUSH2 0x23F JUMP JUMPDEST PUSH1 0x40 MLOAD DUP1 DUP3 ISZERO ISZERO ISZERO ISZERO DUP2 MSTORE PUSH1 0x20 ADD SWAP2 POP POP PUSH1 0x40 MLOAD DUP1 SWAP2 SUB SWAP1 RETURN JUMPDEST CALLVALUE DUP1 ISZERO PUSH2 0xC3 JUMPI PUSH1 0x0 DUP1 REVERT JUMPDEST POP PUSH2 0xCC PUSH2 0x2AA JUMP JUMPDEST PUSH1 0x40 MLOAD DUP1 DUP3 DUP2 MSTORE PUSH1 0x20 ADD SWAP2 POP POP PUSH1 0x40 MLOAD DUP1 SWAP2 SUB SWAP1 RETURN JUMPDEST CALLVALUE DUP1 ISZERO PUSH2 0xEE JUMPI PUSH1 0x0 DUP1 REVERT JUMPDEST POP PUSH2 0xF7 PUSH2 0x2B0 JUMP JUMPDEST PUSH1 0x40 MLOAD DUP1 DUP3 PUSH1 0x9 PUSH1 0x20 MUL DUP1 DUP4 DUP4 PUSH1 0x0 JUMPDEST DUP4 DUP2 LT ISZERO PUSH2 0x122 JUMPI DUP1 DUP3 ADD MLOAD DUP2 DUP5 ADD MSTORE PUSH1 0x20 DUP2 ADD SWAP1 POP PUSH2 0x107 JUMP JUMPDEST POP POP POP POP SWAP1 POP ADD SWAP2 POP POP PUSH1 0x40 MLOAD DUP1 SWAP2 SUB SWAP1 RETURN JUMPDEST CALLVALUE DUP1 ISZERO PUSH2 0x141 JUMPI PUSH1 0x0 DUP1 REVERT JUMPDEST POP PUSH2 0x160 PUSH1 0x4 DUP1 CALLDATASIZE SUB DUP2 ADD SWAP1 DUP1 DUP1 CALLDATALOAD SWAP1 PUSH1 0x20 ADD SWAP1 SWAP3 SWAP2 SWAP1 POP POP POP PUSH2 0x2FB JUMP JUMPDEST STOP JUMPDEST CALLVALUE DUP1 ISZERO PUSH2 0x16E JUMPI PUSH1 0x0 DUP1 REVERT JUMPDEST POP PUSH2 0x177 PUSH2 0x7AE JUMP JUMPDEST PUSH1 0x40 MLOAD DUP1 DUP3 DUP2 MSTORE PUSH1 0x20 ADD SWAP2 POP POP PUSH1 0x40 MLOAD DUP1 SWAP2 SUB SWAP1 RETURN JUMPDEST CALLVALUE DUP1 ISZERO PUSH2 0x199 JUMPI PUSH1 0x0 DUP1 REVERT JUMPDEST POP PUSH2 0x1B8 PUSH1 0x4 DUP1 CALLDATASIZE SUB DUP2 ADD SWAP1 DUP1 DUP1 CALLDATALOAD SWAP1 PUSH1 0x20 ADD SWAP1 SWAP3 SWAP2 SWAP1 POP POP POP PUSH2 0x7B4 JUMP JUMPDEST PUSH1 0x40 MLOAD DUP1 DUP3 ISZERO ISZERO ISZERO ISZERO DUP2 MSTORE PUSH1 0x20 ADD SWAP2 POP POP PUSH1 0x40 MLOAD DUP1 SWAP2 SUB SWAP1 RETURN JUMPDEST CALLVALUE DUP1 ISZERO PUSH2 0x1DE JUMPI PUSH1 0x0 DUP1 REVERT JUMPDEST POP PUSH2 0x1FD PUSH1 0x4 DUP1 CALLDATASIZE SUB DUP2 ADD SWAP1 DUP1 DUP1 CALLDATALOAD SWAP1 PUSH1 0x20 ADD SWAP1 SWAP3 SWAP2 SWAP1 POP POP POP PUSH2 0x7E9 JUMP JUMPDEST PUSH1 0x40 MLOAD DUP1 DUP3 PUSH20 0xFFFFFFFFFFFFFFFFFFFFFFFFFFFFFFFFFFFFFFFF AND PUSH20 0xFFFFFFFFFFFFFFFFFFFFFFFFFFFFFFFFFFFFFFFF AND DUP2 MSTORE PUSH1 0x20 ADD SWAP2 POP POP PUSH1 0x40 MLOAD DUP1 SWAP2 SUB SWAP1 RETURN JUMPDEST PUSH1 0x0 CALLER PUSH20 0xFFFFFFFFFFFFFFFFFFFFFFFFFFFFFFFFFFFFFFFF AND PUSH1 0x0 PUSH1 0x1 PUSH1 0x2 SLOAD SUB PUSH1 0x2 DUP2 LT ISZERO ISZERO PUSH2 0x26C JUMPI INVALID JUMPDEST ADD PUSH1 0x0 SWAP1 SLOAD SWAP1 PUSH2 0x100 EXP SWAP1 DIV PUSH20 0xFFFFFFFFFFFFFFFFFFFFFFFFFFFFFFFFFFFFFFFF AND PUSH20 0xFFFFFFFFFFFFFFFFFFFFFFFFFFFFFFFFFFFFFFFF AND EQ SWAP1 POP SWAP1 JUMP JUMPDEST PUSH1 0x3 SLOAD DUP2 JUMP JUMPDEST PUSH2 0x2B8 PUSH2 0x837 JUMP JUMPDEST PUSH1 0x4 PUSH1 0x9 DUP1 PUSH1 0x20 MUL PUSH1 0x40 MLOAD SWAP1 DUP2 ADD PUSH1 0x40 MSTORE DUP1 SWAP3 SWAP2 SWAP1 DUP3 PUSH1 0x9 DUP1 ISZERO PUSH2 0x2F1 JUMPI PUSH1 0x20 MUL DUP3 ADD SWAP2 JUMPDEST DUP2 SLOAD DUP2 MSTORE PUSH1 0x20 ADD SWAP1 PUSH1 0x1 ADD SWAP1 DUP1 DUP4 GT PUSH2 0x2DD JUMPI JUMPDEST POP POP POP POP POP SWAP1 POP SWAP1 JUMP JUMPDEST DUP1 PUSH1 0x0 DUP2 LT ISZERO DUP1 ISZERO PUSH2 0x30D JUMPI POP PUSH1 0x9 DUP2 LT JUMPDEST ISZERO ISZERO PUSH2 0x3A7 JUMPI PUSH1 0x40 MLOAD PUSH32 0x8C379A000000000000000000000000000000000000000000000000000000000 DUP2 MSTORE PUSH1 0x4 ADD DUP1 DUP1 PUSH1 0x20 ADD DUP3 DUP2 SUB DUP3 MSTORE PUSH1 0x3B DUP2 MSTORE PUSH1 0x20 ADD DUP1 PUSH32 0x494E56414C4944204D4F56453A204D6F766573206D7573742062652062657477 DUP2 MSTORE PUSH1 0x20 ADD PUSH32 0x65656E20626F61726420706F736974696F6E73203020616E6420380000000000 DUP2 MSTORE POP PUSH1 0x40 ADD SWAP2 POP POP PUSH1 0x40 MLOAD DUP1 SWAP2 SUB SWAP1 REVERT JUMPDEST PUSH1 0x0 PUSH1 0x4 DUP3 PUSH1 0x9 DUP2 LT ISZERO ISZERO PUSH2 0x3B8 JUMPI INVALID JUMPDEST ADD SLOAD EQ ISZERO ISZERO PUSH2 0x455 JUMPI PUSH1 0x40 MLOAD PUSH32 0x8C379A000000000000000000000000000000000000000000000000000000000 DUP2 MSTORE PUSH1 0x4 ADD DUP1 DUP1 PUSH1 0x20 ADD DUP3 DUP2 SUB DUP3 MSTORE PUSH1 0x2D DUP2 MSTORE PUSH1 0x20 ADD DUP1 PUSH32 0x494E56414C4944204D4F56453A20426F61726420706F736974696F6E20616C72 DUP2 MSTORE PUSH1 0x20 ADD PUSH32 0x65616479206F6363757069656400000000000000000000000000000000000000 DUP2 MSTORE POP PUSH1 0x40 ADD SWAP2 POP POP PUSH1 0x40 MLOAD DUP1 SWAP2 SUB SWAP1 REVERT JUMPDEST DUP2 PUSH1 0x0 DUP1 PUSH1 0x0 DUP1 PUSH1 0x3 SLOAD EQ ISZERO ISZERO PUSH2 0x4D4 JUMPI PUSH1 0x40 MLOAD PUSH32 0x8C379A000000000000000000000000000000000000000000000000000000000 DUP2 MSTORE PUSH1 0x4 ADD DUP1 DUP1 PUSH1 0x20 ADD DUP3 DUP2 SUB DUP3 MSTORE PUSH1 0x1B DUP2 MSTORE PUSH1 0x20 ADD DUP1 PUSH32 0x47414D45204F5645523A205468652067616D65206973206F7665720000000000 DUP2 MSTORE POP PUSH1 0x20 ADD SWAP2 POP POP PUSH1 0x40 MLOAD DUP1 SWAP2 SUB SWAP1 REVERT JUMPDEST CALLER PUSH20 0xFFFFFFFFFFFFFFFFFFFFFFFFFFFFFFFFFFFFFFFF AND PUSH1 0x0 PUSH1 0x1 PUSH1 0x2 SLOAD SUB PUSH1 0x2 DUP2 LT ISZERO ISZERO PUSH2 0x4FF JUMPI INVALID JUMPDEST ADD PUSH1 0x0 SWAP1 SLOAD SWAP1 PUSH2 0x100 EXP SWAP1 DIV PUSH20 0xFFFFFFFFFFFFFFFFFFFFFFFFFFFFFFFFFFFFFFFF AND PUSH20 0xFFFFFFFFFFFFFFFFFFFFFFFFFFFFFFFFFFFFFFFF AND EQ ISZERO ISZERO PUSH2 0x543 JUMPI PUSH1 0x0 DUP1 REVERT JUMPDEST PUSH1 0x2 SLOAD PUSH1 0x4 DUP8 PUSH1 0x9 DUP2 LT ISZERO ISZERO PUSH2 0x555 JUMPI INVALID JUMPDEST ADD DUP2 SWAP1 SSTORE POP PUSH1 0x1 PUSH1 0x2 SLOAD EQ PUSH2 0x56B JUMPI PUSH1 0x1 PUSH2 0x56E JUMP JUMPDEST PUSH1 0x2 JUMPDEST PUSH1 0xFF AND PUSH1 0x2 DUP2 SWAP1 SSTORE POP PUSH1 0x0 SWAP3 POP JUMPDEST PUSH1 0x9 DUP4 LT ISZERO PUSH2 0x60B JUMPI PUSH2 0x5C6 PUSH1 0x4 DUP5 PUSH1 0x9 DUP2 LT ISZERO ISZERO PUSH2 0x597 JUMPI INVALID JUMPDEST ADD SLOAD PUSH1 0x4 PUSH1 0x1 DUP7 ADD PUSH1 0x9 DUP2 LT ISZERO ISZERO PUSH2 0x5AB JUMPI INVALID JUMPDEST ADD SLOAD PUSH1 0x4 PUSH1 0x2 DUP8 ADD PUSH1 0x9 DUP2 LT ISZERO ISZERO PUSH2 0x5BF JUMPI INVALID JUMPDEST ADD SLOAD PUSH2 0x81E JUMP JUMPDEST DUP1 ISZERO PUSH2 0x5E3 JUMPI POP PUSH1 0x0 PUSH1 0x4 DUP5 PUSH1 0x9 DUP2 LT ISZERO ISZERO PUSH2 0x5DE JUMPI INVALID JUMPDEST ADD SLOAD EQ ISZERO JUMPDEST ISZERO PUSH2 0x600 JUMPI PUSH1 0x4 DUP4 PUSH1 0x9 DUP2 LT ISZERO ISZERO PUSH2 0x5F7 JUMPI INVALID JUMPDEST ADD SLOAD PUSH1 0x3 DUP2 SWAP1 SSTORE POP JUMPDEST PUSH1 0x3 DUP4 ADD SWAP3 POP PUSH2 0x57C JUMP JUMPDEST PUSH1 0x0 SWAP2 POP JUMPDEST PUSH1 0x3 DUP3 LT ISZERO PUSH2 0x6A1 JUMPI PUSH2 0x65A PUSH1 0x4 DUP4 PUSH1 0x9 DUP2 LT ISZERO ISZERO PUSH2 0x62B JUMPI INVALID JUMPDEST ADD SLOAD PUSH1 0x4 PUSH1 0x3 DUP6 ADD PUSH1 0x9 DUP2 LT ISZERO ISZERO PUSH2 0x63F JUMPI INVALID JUMPDEST ADD SLOAD PUSH1 0x4 PUSH1 0x6 DUP7 ADD PUSH1 0x9 DUP2 LT ISZERO ISZERO PUSH2 0x653 JUMPI INVALID JUMPDEST ADD SLOAD PUSH2 0x81E JUMP JUMPDEST DUP1 ISZERO PUSH2 0x677 JUMPI POP PUSH1 0x0 PUSH1 0x4 DUP5 PUSH1 0x9 DUP2 LT ISZERO ISZERO PUSH2 0x672 JUMPI INVALID JUMPDEST ADD SLOAD EQ ISZERO JUMPDEST ISZERO PUSH2 0x694 JUMPI PUSH1 0x4 DUP3 PUSH1 0x9 DUP2 LT ISZERO ISZERO PUSH2 0x68B JUMPI INVALID JUMPDEST ADD SLOAD PUSH1 0x3 DUP2 SWAP1 SSTORE POP JUMPDEST DUP2 DUP1 PUSH1 0x1 ADD SWAP3 POP POP PUSH2 0x610 JUMP JUMPDEST PUSH2 0x6DE PUSH1 0x4 PUSH1 0x0 PUSH1 0x9 DUP2 LT ISZERO ISZERO PUSH2 0x6B4 JUMPI INVALID JUMPDEST ADD SLOAD PUSH1 0x4 DUP1 PUSH1 0x9 DUP2 LT ISZERO ISZERO PUSH2 0x6C5 JUMPI INVALID JUMPDEST ADD SLOAD PUSH1 0x4 PUSH1 0x8 PUSH1 0x9 DUP2 LT ISZERO ISZERO PUSH2 0x6D7 JUMPI INVALID JUMPDEST ADD SLOAD PUSH2 0x81E JUMP JUMPDEST DUP1 PUSH2 0x722 JUMPI POP PUSH2 0x721 PUSH1 0x4 PUSH1 0x2 PUSH1 0x9 DUP2 LT ISZERO ISZERO PUSH2 0x6F7 JUMPI INVALID JUMPDEST ADD SLOAD PUSH1 0x4 DUP1 PUSH1 0x9 DUP2 LT ISZERO ISZERO PUSH2 0x708 JUMPI INVALID JUMPDEST ADD SLOAD PUSH1 0x4 PUSH1 0x6 PUSH1 0x9 DUP2 LT ISZERO ISZERO PUSH2 0x71A JUMPI INVALID JUMPDEST ADD SLOAD PUSH2 0x81E JUMP JUMPDEST JUMPDEST DUP1 ISZERO PUSH2 0x73F JUMPI POP PUSH1 0x0 PUSH1 0x4 DUP1 PUSH1 0x9 DUP2 LT ISZERO ISZERO PUSH2 0x73A JUMPI INVALID JUMPDEST ADD SLOAD EQ ISZERO JUMPDEST ISZERO PUSH2 0x75C JUMPI PUSH1 0x4 DUP1 PUSH1 0x9 DUP2 LT ISZERO ISZERO PUSH2 0x753 JUMPI INVALID JUMPDEST ADD SLOAD PUSH1 0x3 DUP2 SWAP1 SSTORE POP JUMPDEST PUSH1 0x0 SWAP1 POP JUMPDEST PUSH1 0x9 DUP2 LT ISZERO PUSH2 0x7A6 JUMPI PUSH1 0x0 PUSH1 0x4 DUP3 PUSH1 0x9 DUP2 LT ISZERO ISZERO PUSH2 0x77B JUMPI INVALID JUMPDEST ADD SLOAD EQ ISZERO PUSH2 0x788 JUMPI PUSH2 0x7A6 JUMP JUMPDEST PUSH1 0x8 DUP2 EQ ISZERO PUSH2 0x799 JUMPI PUSH1 0x3 DUP1 DUP2 SWAP1 SSTORE POP JUMPDEST DUP1 DUP1 PUSH1 0x1 ADD SWAP2 POP POP PUSH2 0x761 JUMP JUMPDEST POP POP POP POP POP POP JUMP JUMPDEST PUSH1 0x2 SLOAD DUP2 JUMP JUMPDEST PUSH1 0x0 DUP1 PUSH1 0x4 DUP4 PUSH1 0x9 DUP2 LT ISZERO ISZERO PUSH2 0x7C6 JUMPI INVALID JUMPDEST ADD SLOAD EQ DUP1 ISZERO PUSH2 0x7E2 JUMPI POP PUSH1 0x0 DUP3 LT ISZERO DUP1 ISZERO PUSH2 0x7E1 JUMPI POP PUSH1 0x9 DUP3 LT JUMPDEST JUMPDEST SWAP1 POP SWAP2 SWAP1 POP JUMP JUMPDEST PUSH1 0x0 DUP2 PUSH1 0x2 DUP2 LT ISZERO ISZERO PUSH2 0x7F8 JUMPI INVALID JUMPDEST ADD PUSH1 0x0 SWAP2 POP SLOAD SWAP1 PUSH2 0x100 EXP SWAP1 DIV PUSH20 0xFFFFFFFFFFFFFFFFFFFFFFFFFFFFFFFFFFFFFFFF AND DUP2 JUMP JUMPDEST PUSH1 0x0 DUP3 DUP5 EQ DUP1 ISZERO PUSH2 0x82E JUMPI POP DUP2 DUP4 EQ JUMPDEST SWAP1 POP SWAP4 SWAP3 POP POP POP JUMP JUMPDEST PUSH2 0x120 PUSH1 0x40 MLOAD SWAP1 DUP2 ADD PUSH1 0x40 MSTORE DUP1 PUSH1 0x9 SWAP1 PUSH1 0x20 DUP3 MUL DUP1 CODESIZE DUP4 CODECOPY DUP1 DUP3 ADD SWAP2 POP POP SWAP1 POP POP SWAP1 JUMP STOP LOG1 PUSH6 0x627A7A723058 KECCAK256 0xab 0xf7 NOT 0x5f 0xe6 0x5f KECCAK256 0xc3 LOG2 0xe2 SWAP11 SUB SLOAD SWAP16 0xbe SWAP14 XOR 0x4e 0x23 PUSH10 0x1EADA8EDA50EF6A51B1 KECCAK256 JUMPDEST STOP 0x29 "
				},
				"gasEstimates": {
					"creation": {
						"codeDepositCost": "436600",
						"executionCost": "infinite",
						"totalCost": "infinite"
					},
					"external": {
						"move(uint256)": "infinite",
						"myTurn()": "708",
						"players(uint256)": "667",
						"showBoard()": "infinite",
						"status()": "416",
						"turn()": "482",
						"validMove(uint256)": "691"
					},
					"internal": {
						"_getStatus(uint256)": "infinite",
						"_threeInALine(uint256,uint256,uint256)": "69"
					}
				},
				"methodIdentifiers": {
					"move(uint256)": "87cb15f7",
					"myTurn()": "1ed4557f",
					"players(uint256)": "f71d96cb",
					"showBoard()": "49a9798d",
					"status()": "200d2ed2",
					"turn()": "8b299903",
					"validMove(uint256)": "b4c95a5c"
				}
			},
			"userdoc": {
				"methods": {}
			}
		}
	}
}