{
	"scripts/TicTacToe.sol": {
		"TicTacToe": {
			"abi": [
				{
					"constant": true,
					"inputs": [],
					"name": "myTurn",
					"outputs": [
						{
							"name": "",
							"type": "bool"
						}
					],
					"payable": false,
					"stateMutability": "view",
					"type": "function"
				},
				{
					"constant": true,
					"inputs": [],
					"name": "status",
					"outputs": [
						{
							"name": "",
							"type": "uint256"
						}
					],
					"payable": false,
					"stateMutability": "view",
					"type": "function"
				},
				{
					"constant": true,
					"inputs": [],
					"name": "showBoard",
					"outputs": [
						{
							"name": "",
							"type": "uint256[9]"
						}
					],
					"payable": false,
					"stateMutability": "view",
					"type": "function"
				},
				{
					"constant": false,
					"inputs": [
						{
							"name": "pos",
							"type": "uint256"
						}
					],
					"name": "move",
					"outputs": [],
					"payable": false,
					"stateMutability": "nonpayable",
					"type": "function"
				},
				{
					"constant": true,
					"inputs": [],
					"name": "turn",
					"outputs": [
						{
							"name": "",
							"type": "uint256"
						}
					],
					"payable": false,
					"stateMutability": "view",
					"type": "function"
				},
				{
					"constant": true,
					"inputs": [
						{
							"name": "pos",
							"type": "uint256"
						}
					],
					"name": "validMove",
					"outputs": [
						{
							"name": "",
							"type": "bool"
						}
					],
					"payable": false,
					"stateMutability": "view",
					"type": "function"
				},
				{
					"constant": true,
					"inputs": [
						{
							"name": "",
							"type": "uint256"
						}
					],
					"name": "players",
					"outputs": [
						{
							"name": "",
							"type": "address"
						}
					],
					"payable": false,
					"stateMutability": "view",
					"type": "function"
				},
				{
					"inputs": [
						{
							"name": "opponent",
							"type": "address"
						}
					],
					"payable": false,
					"stateMutability": "nonpayable",
					"type": "constructor"
				}
			],
			"devdoc": {
				"methods": {
					"move(uint256)": {
						"details": "a player makes a move",
						"params": {
							"pos": "the position the player places at DONE"
						}
					},
					"myTurn()": {
						"details": "check if it's msg.sender's turn",
						"return": "true if it's msg.sender's turn otherwise false DONE"
					},
					"showBoard()": {
						"details": "show the current board",
						"return": "board DONE"
					},
					"validMove(uint256)": {
						"details": "check a move is valid",
						"params": {
							"pos": "the position the player places at"
						},
						"return": "true if valid otherwise false DONE"
					}
				},
				"title": "TicTacToe contract*"
			},
			"evm": {
				"assembly": "    /* \"scripts/TicTacToe.sol\":101:3963  contract TicTacToe {... */\n  mstore(0x40, 0x80)\n    /* \"scripts/TicTacToe.sol\":257:258  1 */\n  0x1\n    /* \"scripts/TicTacToe.sol\":238:258  uint public turn = 1 */\n  0x2\n  sstore\n    /* \"scripts/TicTacToe.sol\":628:771  constructor(address opponent) public {... */\n  callvalue\n    /* \"--CODEGEN--\":8:17   */\n  dup1\n    /* \"--CODEGEN--\":5:7   */\n  iszero\n  tag_1\n  jumpi\n    /* \"--CODEGEN--\":30:31   */\n  0x0\n    /* \"--CODEGEN--\":27:28   */\n  dup1\n    /* \"--CODEGEN--\":20:32   */\n  revert\n    /* \"--CODEGEN--\":5:7   */\ntag_1:\n    /* \"scripts/TicTacToe.sol\":628:771  constructor(address opponent) public {... */\n  pop\n  mload(0x40)\n  0x20\n  dup1\n  bytecodeSize\n  dup4\n  codecopy\n  dup2\n  add\n  dup1\n  0x40\n  mstore\n  dup2\n  add\n  swap1\n  dup1\n  dup1\n  mload\n  swap1\n  0x20\n  add\n  swap1\n  swap3\n  swap2\n  swap1\n  pop\n  pop\n  pop\n    /* \"scripts/TicTacToe.sol\":697:705  opponent */\n  dup1\n    /* \"scripts/TicTacToe.sol\":683:705  msg.sender != opponent */\n  0xffffffffffffffffffffffffffffffffffffffff\n  and\n    /* \"scripts/TicTacToe.sol\":683:693  msg.sender */\n  caller\n    /* \"scripts/TicTacToe.sol\":683:705  msg.sender != opponent */\n  0xffffffffffffffffffffffffffffffffffffffff\n  and\n  eq\n  iszero\n    /* \"scripts/TicTacToe.sol\":675:722  require(msg.sender != opponent, \"No self play\") */\n  iszero\n  iszero\n  tag_4\n  jumpi\n  mload(0x40)\n  0x8c379a000000000000000000000000000000000000000000000000000000000\n  dup2\n  mstore\n  0x4\n  add\n  dup1\n  dup1\n  0x20\n  add\n  dup3\n  dup2\n  sub\n  dup3\n  mstore\n  0xc\n  dup2\n  mstore\n  0x20\n  add\n  dup1\n  0x4e6f2073656c6620706c61790000000000000000000000000000000000000000\n  dup2\n  mstore\n  pop\n  0x20\n  add\n  swap2\n  pop\n  pop\n  mload(0x40)\n  dup1\n  swap2\n  sub\n  swap1\n  revert\ntag_4:\n    /* \"scripts/TicTacToe.sol\":732:764  players = [msg.sender, opponent] */\n  0x40\n  dup1\n  mload\n  swap1\n  dup2\n  add\n  0x40\n  mstore\n  dup1\n    /* \"scripts/TicTacToe.sol\":743:753  msg.sender */\n  caller\n    /* \"scripts/TicTacToe.sol\":732:764  players = [msg.sender, opponent] */\n  0xffffffffffffffffffffffffffffffffffffffff\n  and\n  0xffffffffffffffffffffffffffffffffffffffff\n  and\n  dup2\n  mstore\n  0x20\n  add\n    /* \"scripts/TicTacToe.sol\":755:763  opponent */\n  dup3\n    /* \"scripts/TicTacToe.sol\":732:764  players = [msg.sender, opponent] */\n  0xffffffffffffffffffffffffffffffffffffffff\n  and\n  0xffffffffffffffffffffffffffffffffffffffff\n  and\n  dup2\n  mstore\n  pop\n    /* \"scripts/TicTacToe.sol\":732:739  players */\n  0x0\n    /* \"scripts/TicTacToe.sol\":732:764  players = [msg.sender, opponent] */\n  swap1\n  0x2\n  tag_5\n  swap3\n  swap2\n  swap1\n  jump\t// in(tag_6)\ntag_5:\n  pop\n    /* \"scripts/TicTacToe.sol\":628:771  constructor(address opponent) public {... */\n  pop\n    /* \"scripts/TicTacToe.sol\":101:3963  contract TicTacToe {... */\n  jump(tag_7)\ntag_6:\n  dup3\n  0x2\n  dup2\n  add\n  swap3\n  dup3\n  iszero\n  tag_8\n  jumpi\n  swap2\n  0x20\n  mul\n  dup3\n  add\ntag_9:\n  dup3\n  dup2\n  gt\n  iszero\n  tag_10\n  jumpi\n  dup3\n  mload\n  dup3\n  exp(0x100, 0x0)\n  dup2\n  sload\n  dup2\n  0xffffffffffffffffffffffffffffffffffffffff\n  mul\n  not\n  and\n  swap1\n  dup4\n  0xffffffffffffffffffffffffffffffffffffffff\n  and\n  mul\n  or\n  swap1\n  sstore\n  pop\n  swap2\n  0x20\n  add\n  swap2\n  swap1\n  0x1\n  add\n  swap1\n  jump(tag_9)\ntag_10:\ntag_8:\n  pop\n  swap1\n  pop\n  tag_11\n  swap2\n  swap1\n  jump\t// in(tag_12)\ntag_11:\n  pop\n  swap1\n  jump\t// out\ntag_12:\n  tag_13\n  swap2\n  swap1\ntag_14:\n  dup1\n  dup3\n  gt\n  iszero\n  tag_15\n  jumpi\n  0x0\n  dup2\n  dup2\n  0x100\n  exp\n  dup2\n  sload\n  swap1\n  0xffffffffffffffffffffffffffffffffffffffff\n  mul\n  not\n  and\n  swap1\n  sstore\n  pop\n  0x1\n  add\n  jump(tag_14)\ntag_15:\n  pop\n  swap1\n  jump\ntag_13:\n  swap1\n  jump\t// out\ntag_7:\n  dataSize(sub_0)\n  dup1\n  dataOffset(sub_0)\n  0x0\n  codecopy\n  0x0\n  return\nstop\n\nsub_0: assembly {\n        /* \"scripts/TicTacToe.sol\":101:3963  contract TicTacToe {... */\n      mstore(0x40, 0x80)\n      jumpi(tag_1, lt(calldatasize, 0x4))\n      calldataload(0x0)\n      0x100000000000000000000000000000000000000000000000000000000\n      swap1\n      div\n      0xffffffff\n      and\n      dup1\n      0x1ed4557f\n      eq\n      tag_2\n      jumpi\n      dup1\n      0x200d2ed2\n      eq\n      tag_3\n      jumpi\n      dup1\n      0x49a9798d\n      eq\n      tag_4\n      jumpi\n      dup1\n      0x87cb15f7\n      eq\n      tag_5\n      jumpi\n      dup1\n      0x8b299903\n      eq\n      tag_6\n      jumpi\n      dup1\n      0xb4c95a5c\n      eq\n      tag_7\n      jumpi\n      dup1\n      0xf71d96cb\n      eq\n      tag_8\n      jumpi\n    tag_1:\n      0x0\n      dup1\n      revert\n        /* \"scripts/TicTacToe.sol\":2591:2687  function myTurn() public view returns (bool) {... */\n    tag_2:\n      callvalue\n        /* \"--CODEGEN--\":8:17   */\n      dup1\n        /* \"--CODEGEN--\":5:7   */\n      iszero\n      tag_9\n      jumpi\n        /* \"--CODEGEN--\":30:31   */\n      0x0\n        /* \"--CODEGEN--\":27:28   */\n      dup1\n        /* \"--CODEGEN--\":20:32   */\n      revert\n        /* \"--CODEGEN--\":5:7   */\n    tag_9:\n        /* \"scripts/TicTacToe.sol\":2591:2687  function myTurn() public view returns (bool) {... */\n      pop\n      tag_10\n      jump(tag_11)\n    tag_10:\n      mload(0x40)\n      dup1\n      dup3\n      iszero\n      iszero\n      iszero\n      iszero\n      dup2\n      mstore\n      0x20\n      add\n      swap2\n      pop\n      pop\n      mload(0x40)\n      dup1\n      swap2\n      sub\n      swap1\n      return\n        /* \"scripts/TicTacToe.sol\":372:390  uint public status */\n    tag_3:\n      callvalue\n        /* \"--CODEGEN--\":8:17   */\n      dup1\n        /* \"--CODEGEN--\":5:7   */\n      iszero\n      tag_12\n      jumpi\n        /* \"--CODEGEN--\":30:31   */\n      0x0\n        /* \"--CODEGEN--\":27:28   */\n      dup1\n        /* \"--CODEGEN--\":20:32   */\n      revert\n        /* \"--CODEGEN--\":5:7   */\n    tag_12:\n        /* \"scripts/TicTacToe.sol\":372:390  uint public status */\n      pop\n      tag_13\n      jump(tag_14)\n    tag_13:\n      mload(0x40)\n      dup1\n      dup3\n      dup2\n      mstore\n      0x20\n      add\n      swap2\n      pop\n      pop\n      mload(0x40)\n      dup1\n      swap2\n      sub\n      swap1\n      return\n        /* \"scripts/TicTacToe.sol\":3883:3961  function showBoard() public view returns (uint[9]) {... */\n    tag_4:\n      callvalue\n        /* \"--CODEGEN--\":8:17   */\n      dup1\n        /* \"--CODEGEN--\":5:7   */\n      iszero\n      tag_15\n      jumpi\n        /* \"--CODEGEN--\":30:31   */\n      0x0\n        /* \"--CODEGEN--\":27:28   */\n      dup1\n        /* \"--CODEGEN--\":20:32   */\n      revert\n        /* \"--CODEGEN--\":5:7   */\n    tag_15:\n        /* \"scripts/TicTacToe.sol\":3883:3961  function showBoard() public view returns (uint[9]) {... */\n      pop\n      tag_16\n      jump(tag_17)\n    tag_16:\n      mload(0x40)\n      dup1\n      dup3\n      mul(0x20, 0x9)\n      dup1\n      dup4\n      dup4\n        /* \"--CODEGEN--\":23:24   */\n      0x0\n        /* \"--CODEGEN--\":8:108   */\n    tag_18:\n        /* \"--CODEGEN--\":33:36   */\n      dup4\n        /* \"--CODEGEN--\":30:31   */\n      dup2\n        /* \"--CODEGEN--\":27:37   */\n      lt\n        /* \"--CODEGEN--\":8:108   */\n      iszero\n      tag_19\n      jumpi\n        /* \"--CODEGEN--\":99:100   */\n      dup1\n        /* \"--CODEGEN--\":94:97   */\n      dup3\n        /* \"--CODEGEN--\":90:101   */\n      add\n        /* \"--CODEGEN--\":84:102   */\n      mload\n        /* \"--CODEGEN--\":80:81   */\n      dup2\n        /* \"--CODEGEN--\":75:78   */\n      dup5\n        /* \"--CODEGEN--\":71:82   */\n      add\n        /* \"--CODEGEN--\":64:103   */\n      mstore\n        /* \"--CODEGEN--\":52:54   */\n      0x20\n        /* \"--CODEGEN--\":49:50   */\n      dup2\n        /* \"--CODEGEN--\":45:55   */\n      add\n        /* \"--CODEGEN--\":40:55   */\n      swap1\n      pop\n        /* \"--CODEGEN--\":8:108   */\n      jump(tag_18)\n    tag_19:\n        /* \"--CODEGEN--\":12:26   */\n      pop\n        /* \"scripts/TicTacToe.sol\":3883:3961  function showBoard() public view returns (uint[9]) {... */\n      pop\n      pop\n      pop\n      swap1\n      pop\n      add\n      swap2\n      pop\n      pop\n      mload(0x40)\n      dup1\n      swap2\n      sub\n      swap1\n      return\n        /* \"scripts/TicTacToe.sol\":3688:3793  function move(uint pos) public _validMove(pos) _checkStatus(pos) _myTurn {... */\n    tag_5:\n      callvalue\n        /* \"--CODEGEN--\":8:17   */\n      dup1\n        /* \"--CODEGEN--\":5:7   */\n      iszero\n      tag_21\n      jumpi\n        /* \"--CODEGEN--\":30:31   */\n      0x0\n        /* \"--CODEGEN--\":27:28   */\n      dup1\n        /* \"--CODEGEN--\":20:32   */\n      revert\n        /* \"--CODEGEN--\":5:7   */\n    tag_21:\n        /* \"scripts/TicTacToe.sol\":3688:3793  function move(uint pos) public _validMove(pos) _checkStatus(pos) _myTurn {... */\n      pop\n      tag_22\n      0x4\n      dup1\n      calldatasize\n      sub\n      dup2\n      add\n      swap1\n      dup1\n      dup1\n      calldataload\n      swap1\n      0x20\n      add\n      swap1\n      swap3\n      swap2\n      swap1\n      pop\n      pop\n      pop\n      jump(tag_23)\n    tag_22:\n      stop\n        /* \"scripts/TicTacToe.sol\":238:258  uint public turn = 1 */\n    tag_6:\n      callvalue\n        /* \"--CODEGEN--\":8:17   */\n      dup1\n        /* \"--CODEGEN--\":5:7   */\n      iszero\n      tag_24\n      jumpi\n        /* \"--CODEGEN--\":30:31   */\n      0x0\n        /* \"--CODEGEN--\":27:28   */\n      dup1\n        /* \"--CODEGEN--\":20:32   */\n      revert\n        /* \"--CODEGEN--\":5:7   */\n    tag_24:\n        /* \"scripts/TicTacToe.sol\":238:258  uint public turn = 1 */\n      pop\n      tag_25\n      jump(tag_26)\n    tag_25:\n      mload(0x40)\n      dup1\n      dup3\n      dup2\n      mstore\n      0x20\n      add\n      swap2\n      pop\n      pop\n      mload(0x40)\n      dup1\n      swap2\n      sub\n      swap1\n      return\n        /* \"scripts/TicTacToe.sol\":3079:3197  function validMove(uint pos) public view returns (bool) {... */\n    tag_7:\n      callvalue\n        /* \"--CODEGEN--\":8:17   */\n      dup1\n        /* \"--CODEGEN--\":5:7   */\n      iszero\n      tag_27\n      jumpi\n        /* \"--CODEGEN--\":30:31   */\n      0x0\n        /* \"--CODEGEN--\":27:28   */\n      dup1\n        /* \"--CODEGEN--\":20:32   */\n      revert\n        /* \"--CODEGEN--\":5:7   */\n    tag_27:\n        /* \"scripts/TicTacToe.sol\":3079:3197  function validMove(uint pos) public view returns (bool) {... */\n      pop\n      tag_28\n      0x4\n      dup1\n      calldatasize\n      sub\n      dup2\n      add\n      swap1\n      dup1\n      dup1\n      calldataload\n      swap1\n      0x20\n      add\n      swap1\n      swap3\n      swap2\n      swap1\n      pop\n      pop\n      pop\n      jump(tag_29)\n    tag_28:\n      mload(0x40)\n      dup1\n      dup3\n      iszero\n      iszero\n      iszero\n      iszero\n      dup2\n      mstore\n      0x20\n      add\n      swap2\n      pop\n      pop\n      mload(0x40)\n      dup1\n      swap2\n      sub\n      swap1\n      return\n        /* \"scripts/TicTacToe.sol\":126:151  address[2] public players */\n    tag_8:\n      callvalue\n        /* \"--CODEGEN--\":8:17   */\n      dup1\n        /* \"--CODEGEN--\":5:7   */\n      iszero\n      tag_30\n      jumpi\n        /* \"--CODEGEN--\":30:31   */\n      0x0\n        /* \"--CODEGEN--\":27:28   */\n      dup1\n        /* \"--CODEGEN--\":20:32   */\n      revert\n        /* \"--CODEGEN--\":5:7   */\n    tag_30:\n        /* \"scripts/TicTacToe.sol\":126:151  address[2] public players */\n      pop\n      tag_31\n      0x4\n      dup1\n      calldatasize\n      sub\n      dup2\n      add\n      swap1\n      dup1\n      dup1\n      calldataload\n      swap1\n      0x20\n      add\n      swap1\n      swap3\n      swap2\n      swap1\n      pop\n      pop\n      pop\n      jump(tag_32)\n    tag_31:\n      mload(0x40)\n      dup1\n      dup3\n      0xffffffffffffffffffffffffffffffffffffffff\n      and\n      0xffffffffffffffffffffffffffffffffffffffff\n      and\n      dup2\n      mstore\n      0x20\n      add\n      swap2\n      pop\n      pop\n      mload(0x40)\n      dup1\n      swap2\n      sub\n      swap1\n      return\n        /* \"scripts/TicTacToe.sol\":2591:2687  function myTurn() public view returns (bool) {... */\n    tag_11:\n        /* \"scripts/TicTacToe.sol\":2630:2634  bool */\n      0x0\n        /* \"scripts/TicTacToe.sol\":2670:2680  msg.sender */\n      caller\n        /* \"scripts/TicTacToe.sol\":2651:2680  players[turn-1] == msg.sender */\n      0xffffffffffffffffffffffffffffffffffffffff\n      and\n        /* \"scripts/TicTacToe.sol\":2651:2658  players */\n      0x0\n        /* \"scripts/TicTacToe.sol\":2664:2665  1 */\n      0x1\n        /* \"scripts/TicTacToe.sol\":2659:2663  turn */\n      sload(0x2)\n        /* \"scripts/TicTacToe.sol\":2659:2665  turn-1 */\n      sub\n        /* \"scripts/TicTacToe.sol\":2651:2666  players[turn-1] */\n      0x2\n      dup2\n      lt\n      iszero\n      iszero\n      tag_34\n      jumpi\n      invalid\n    tag_34:\n      add\n      0x0\n      swap1\n      sload\n      swap1\n      0x100\n      exp\n      swap1\n      div\n      0xffffffffffffffffffffffffffffffffffffffff\n      and\n        /* \"scripts/TicTacToe.sol\":2651:2680  players[turn-1] == msg.sender */\n      0xffffffffffffffffffffffffffffffffffffffff\n      and\n      eq\n        /* \"scripts/TicTacToe.sol\":2644:2680  return players[turn-1] == msg.sender */\n      swap1\n      pop\n        /* \"scripts/TicTacToe.sol\":2591:2687  function myTurn() public view returns (bool) {... */\n      swap1\n      jump\t// out\n        /* \"scripts/TicTacToe.sol\":372:390  uint public status */\n    tag_14:\n      sload(0x3)\n      dup2\n      jump\t// out\n        /* \"scripts/TicTacToe.sol\":3883:3961  function showBoard() public view returns (uint[9]) {... */\n    tag_17:\n        /* \"scripts/TicTacToe.sol\":3925:3932  uint[9] */\n      tag_36\n      jump\t// in(tag_37)\n    tag_36:\n        /* \"scripts/TicTacToe.sol\":3949:3954  board */\n      0x4\n        /* \"scripts/TicTacToe.sol\":3942:3954  return board */\n      0x9\n      dup1\n      0x20\n      mul\n      mload(0x40)\n      swap1\n      dup2\n      add\n      0x40\n      mstore\n      dup1\n      swap3\n      swap2\n      swap1\n      dup3\n      0x9\n      dup1\n      iszero\n      tag_39\n      jumpi\n      0x20\n      mul\n      dup3\n      add\n      swap2\n    tag_40:\n      dup2\n      sload\n      dup2\n      mstore\n      0x20\n      add\n      swap1\n      0x1\n      add\n      swap1\n      dup1\n      dup4\n      gt\n      tag_40\n      jumpi\n    tag_39:\n      pop\n      pop\n      pop\n      pop\n      pop\n      swap1\n      pop\n        /* \"scripts/TicTacToe.sol\":3883:3961  function showBoard() public view returns (uint[9]) {... */\n      swap1\n      jump\t// out\n        /* \"scripts/TicTacToe.sol\":3688:3793  function move(uint pos) public _validMove(pos) _checkStatus(pos) _myTurn {... */\n    tag_23:\n        /* \"scripts/TicTacToe.sol\":3730:3733  pos */\n      dup1\n        /* \"scripts/TicTacToe.sol\":3371:3372  0 */\n      0x0\n        /* \"scripts/TicTacToe.sol\":3364:3367  pos */\n      dup2\n        /* \"scripts/TicTacToe.sol\":3364:3372  pos >= 0 */\n      lt\n      iszero\n        /* \"scripts/TicTacToe.sol\":3364:3383  pos >= 0 && pos < 9 */\n      dup1\n      iszero\n      tag_42\n      jumpi\n      pop\n        /* \"scripts/TicTacToe.sol\":3382:3383  9 */\n      0x9\n        /* \"scripts/TicTacToe.sol\":3376:3379  pos */\n      dup2\n        /* \"scripts/TicTacToe.sol\":3376:3383  pos < 9 */\n      lt\n        /* \"scripts/TicTacToe.sol\":3364:3383  pos >= 0 && pos < 9 */\n    tag_42:\n        /* \"scripts/TicTacToe.sol\":3356:3455  require(pos >= 0 && pos < 9,... */\n      iszero\n      iszero\n      tag_43\n      jumpi\n      mload(0x40)\n      0x8c379a000000000000000000000000000000000000000000000000000000000\n      dup2\n      mstore\n      0x4\n      add\n      dup1\n      dup1\n      0x20\n      add\n      dup3\n      dup2\n      sub\n      dup3\n      mstore\n      0x3b\n      dup2\n      mstore\n      0x20\n      add\n      dup1\n      0x494e56414c4944204d4f56453a204d6f766573206d7573742062652062657477\n      dup2\n      mstore\n      0x20\n      add\n      0x65656e20626f61726420706f736974696f6e73203020616e6420380000000000\n      dup2\n      mstore\n      pop\n      0x40\n      add\n      swap2\n      pop\n      pop\n      mload(0x40)\n      dup1\n      swap2\n      sub\n      swap1\n      revert\n    tag_43:\n        /* \"scripts/TicTacToe.sol\":3486:3487  0 */\n      0x0\n        /* \"scripts/TicTacToe.sol\":3472:3477  board */\n      0x4\n        /* \"scripts/TicTacToe.sol\":3478:3481  pos */\n      dup3\n        /* \"scripts/TicTacToe.sol\":3472:3482  board[pos] */\n      0x9\n      dup2\n      lt\n      iszero\n      iszero\n      tag_44\n      jumpi\n      invalid\n    tag_44:\n      add\n      sload\n        /* \"scripts/TicTacToe.sol\":3472:3487  board[pos] == 0 */\n      eq\n        /* \"scripts/TicTacToe.sol\":3464:3545  require(board[pos] == 0,... */\n      iszero\n      iszero\n      tag_46\n      jumpi\n      mload(0x40)\n      0x8c379a000000000000000000000000000000000000000000000000000000000\n      dup2\n      mstore\n      0x4\n      add\n      dup1\n      dup1\n      0x20\n      add\n      dup3\n      dup2\n      sub\n      dup3\n      mstore\n      0x2d\n      dup2\n      mstore\n      0x20\n      add\n      dup1\n      0x494e56414c4944204d4f56453a20426f61726420706f736974696f6e20616c72\n      dup2\n      mstore\n      0x20\n      add\n      0x65616479206f6363757069656400000000000000000000000000000000000000\n      dup2\n      mstore\n      pop\n      0x40\n      add\n      swap2\n      pop\n      pop\n      mload(0x40)\n      dup1\n      swap2\n      sub\n      swap1\n      revert\n    tag_46:\n        /* \"scripts/TicTacToe.sol\":3748:3751  pos */\n      dup2\n        /* \"scripts/TicTacToe.sol\":1780:1786  uint i */\n      0x0\n        /* \"scripts/TicTacToe.sol\":1960:1966  uint j */\n      dup1\n        /* \"scripts/TicTacToe.sol\":2309:2315  uint k */\n      0x0\n        /* \"scripts/TicTacToe.sol\":1690:1691  0 */\n      dup1\n        /* \"scripts/TicTacToe.sol\":1680:1686  status */\n      sload(0x3)\n        /* \"scripts/TicTacToe.sol\":1680:1691  status == 0 */\n      eq\n        /* \"scripts/TicTacToe.sol\":1672:1723  require(status == 0, \"GAME OVER: The game is over\") */\n      iszero\n      iszero\n      tag_48\n      jumpi\n      mload(0x40)\n      0x8c379a000000000000000000000000000000000000000000000000000000000\n      dup2\n      mstore\n      0x4\n      add\n      dup1\n      dup1\n      0x20\n      add\n      dup3\n      dup2\n      sub\n      dup3\n      mstore\n      0x1b\n      dup2\n      mstore\n      0x20\n      add\n      dup1\n      0x47414d45204f5645523a205468652067616d65206973206f7665720000000000\n      dup2\n      mstore\n      pop\n      0x20\n      add\n      swap2\n      pop\n      pop\n      mload(0x40)\n      dup1\n      swap2\n      sub\n      swap1\n      revert\n    tag_48:\n        /* \"scripts/TicTacToe.sol\":2855:2865  msg.sender */\n      caller\n        /* \"scripts/TicTacToe.sol\":2836:2865  players[turn-1] == msg.sender */\n      0xffffffffffffffffffffffffffffffffffffffff\n      and\n        /* \"scripts/TicTacToe.sol\":2836:2843  players */\n      0x0\n        /* \"scripts/TicTacToe.sol\":2849:2850  1 */\n      0x1\n        /* \"scripts/TicTacToe.sol\":2844:2848  turn */\n      sload(0x2)\n        /* \"scripts/TicTacToe.sol\":2844:2850  turn-1 */\n      sub\n        /* \"scripts/TicTacToe.sol\":2836:2851  players[turn-1] */\n      0x2\n      dup2\n      lt\n      iszero\n      iszero\n      tag_50\n      jumpi\n      invalid\n    tag_50:\n      add\n      0x0\n      swap1\n      sload\n      swap1\n      0x100\n      exp\n      swap1\n      div\n      0xffffffffffffffffffffffffffffffffffffffff\n      and\n        /* \"scripts/TicTacToe.sol\":2836:2865  players[turn-1] == msg.sender */\n      0xffffffffffffffffffffffffffffffffffffffff\n      and\n      eq\n        /* \"scripts/TicTacToe.sol\":2828:2866  require(players[turn-1] == msg.sender) */\n      iszero\n      iszero\n      tag_52\n      jumpi\n      0x0\n      dup1\n      revert\n    tag_52:\n        /* \"scripts/TicTacToe.sol\":3782:3786  turn */\n      sload(0x2)\n        /* \"scripts/TicTacToe.sol\":3769:3774  board */\n      0x4\n        /* \"scripts/TicTacToe.sol\":3775:3778  pos */\n      dup8\n        /* \"scripts/TicTacToe.sol\":3769:3779  board[pos] */\n      0x9\n      dup2\n      lt\n      iszero\n      iszero\n      tag_54\n      jumpi\n      invalid\n    tag_54:\n      add\n        /* \"scripts/TicTacToe.sol\":3769:3786  board[pos] = turn */\n      dup2\n      swap1\n      sstore\n      pop\n        /* \"scripts/TicTacToe.sol\":2898:2899  1 */\n      0x1\n        /* \"scripts/TicTacToe.sol\":2890:2894  turn */\n      sload(0x2)\n        /* \"scripts/TicTacToe.sol\":2890:2899  turn == 1 */\n      eq\n        /* \"scripts/TicTacToe.sol\":2890:2907  turn == 1 ? 2 : 1 */\n      tag_56\n      jumpi\n        /* \"scripts/TicTacToe.sol\":2906:2907  1 */\n      0x1\n        /* \"scripts/TicTacToe.sol\":2890:2907  turn == 1 ? 2 : 1 */\n      jump(tag_57)\n    tag_56:\n        /* \"scripts/TicTacToe.sol\":2902:2903  2 */\n      0x2\n        /* \"scripts/TicTacToe.sol\":2890:2907  turn == 1 ? 2 : 1 */\n    tag_57:\n        /* \"scripts/TicTacToe.sol\":2883:2907  turn = turn == 1 ? 2 : 1 */\n      0xff\n      and\n        /* \"scripts/TicTacToe.sol\":2883:2887  turn */\n      0x2\n        /* \"scripts/TicTacToe.sol\":2883:2907  turn = turn == 1 ? 2 : 1 */\n      dup2\n      swap1\n      sstore\n      pop\n        /* \"scripts/TicTacToe.sol\":1789:1790  0 */\n      0x0\n        /* \"scripts/TicTacToe.sol\":1780:1790  uint i = 0 */\n      swap3\n      pop\n        /* \"scripts/TicTacToe.sol\":1776:1915  for(uint i = 0; i < 9; i += 3){... */\n    tag_58:\n        /* \"scripts/TicTacToe.sol\":1796:1797  9 */\n      0x9\n        /* \"scripts/TicTacToe.sol\":1792:1793  i */\n      dup4\n        /* \"scripts/TicTacToe.sol\":1792:1797  i < 9 */\n      lt\n        /* \"scripts/TicTacToe.sol\":1776:1915  for(uint i = 0; i < 9; i += 3){... */\n      iszero\n      tag_59\n      jumpi\n        /* \"scripts/TicTacToe.sol\":1819:1866  _threeInALine(board[i], board[i+1], board[i+2]) */\n      tag_61\n        /* \"scripts/TicTacToe.sol\":1833:1838  board */\n      0x4\n        /* \"scripts/TicTacToe.sol\":1839:1840  i */\n      dup5\n        /* \"scripts/TicTacToe.sol\":1833:1841  board[i] */\n      0x9\n      dup2\n      lt\n      iszero\n      iszero\n      tag_62\n      jumpi\n      invalid\n    tag_62:\n      add\n      sload\n        /* \"scripts/TicTacToe.sol\":1843:1848  board */\n      0x4\n        /* \"scripts/TicTacToe.sol\":1851:1852  1 */\n      0x1\n        /* \"scripts/TicTacToe.sol\":1849:1850  i */\n      dup7\n        /* \"scripts/TicTacToe.sol\":1849:1852  i+1 */\n      add\n        /* \"scripts/TicTacToe.sol\":1843:1853  board[i+1] */\n      0x9\n      dup2\n      lt\n      iszero\n      iszero\n      tag_64\n      jumpi\n      invalid\n    tag_64:\n      add\n      sload\n        /* \"scripts/TicTacToe.sol\":1855:1860  board */\n      0x4\n        /* \"scripts/TicTacToe.sol\":1863:1864  2 */\n      0x2\n        /* \"scripts/TicTacToe.sol\":1861:1862  i */\n      dup8\n        /* \"scripts/TicTacToe.sol\":1861:1864  i+2 */\n      add\n        /* \"scripts/TicTacToe.sol\":1855:1865  board[i+2] */\n      0x9\n      dup2\n      lt\n      iszero\n      iszero\n      tag_66\n      jumpi\n      invalid\n    tag_66:\n      add\n      sload\n        /* \"scripts/TicTacToe.sol\":1819:1832  _threeInALine */\n      tag_68\n        /* \"scripts/TicTacToe.sol\":1819:1866  _threeInALine(board[i], board[i+1], board[i+2]) */\n      jump\t// in\n    tag_61:\n        /* \"scripts/TicTacToe.sol\":1816:1907  if(_threeInALine(board[i], board[i+1], board[i+2])){... */\n      iszero\n      tag_69\n      jumpi\n        /* \"scripts/TicTacToe.sol\":1888:1893  board */\n      0x4\n        /* \"scripts/TicTacToe.sol\":1894:1895  i */\n      dup4\n        /* \"scripts/TicTacToe.sol\":1888:1896  board[i] */\n      0x9\n      dup2\n      lt\n      iszero\n      iszero\n      tag_70\n      jumpi\n      invalid\n    tag_70:\n      add\n      sload\n        /* \"scripts/TicTacToe.sol\":1879:1885  status */\n      0x3\n        /* \"scripts/TicTacToe.sol\":1879:1896  status = board[i] */\n      dup2\n      swap1\n      sstore\n      pop\n        /* \"scripts/TicTacToe.sol\":1816:1907  if(_threeInALine(board[i], board[i+1], board[i+2])){... */\n    tag_69:\n        /* \"scripts/TicTacToe.sol\":1804:1805  3 */\n      0x3\n        /* \"scripts/TicTacToe.sol\":1799:1805  i += 3 */\n      dup4\n      add\n      swap3\n      pop\n        /* \"scripts/TicTacToe.sol\":1776:1915  for(uint i = 0; i < 9; i += 3){... */\n      jump(tag_58)\n    tag_59:\n        /* \"scripts/TicTacToe.sol\":1969:1970  0 */\n      0x0\n        /* \"scripts/TicTacToe.sol\":1960:1970  uint j = 0 */\n      swap2\n      pop\n        /* \"scripts/TicTacToe.sol\":1956:2092  for(uint j = 0; j < 3; j++){... */\n    tag_72:\n        /* \"scripts/TicTacToe.sol\":1976:1977  3 */\n      0x3\n        /* \"scripts/TicTacToe.sol\":1972:1973  j */\n      dup3\n        /* \"scripts/TicTacToe.sol\":1972:1977  j < 3 */\n      lt\n        /* \"scripts/TicTacToe.sol\":1956:2092  for(uint j = 0; j < 3; j++){... */\n      iszero\n      tag_73\n      jumpi\n        /* \"scripts/TicTacToe.sol\":1996:2043  _threeInALine(board[j], board[j+3], board[j+6]) */\n      tag_75\n        /* \"scripts/TicTacToe.sol\":2010:2015  board */\n      0x4\n        /* \"scripts/TicTacToe.sol\":2016:2017  j */\n      dup4\n        /* \"scripts/TicTacToe.sol\":2010:2018  board[j] */\n      0x9\n      dup2\n      lt\n      iszero\n      iszero\n      tag_76\n      jumpi\n      invalid\n    tag_76:\n      add\n      sload\n        /* \"scripts/TicTacToe.sol\":2020:2025  board */\n      0x4\n        /* \"scripts/TicTacToe.sol\":2028:2029  3 */\n      0x3\n        /* \"scripts/TicTacToe.sol\":2026:2027  j */\n      dup6\n        /* \"scripts/TicTacToe.sol\":2026:2029  j+3 */\n      add\n        /* \"scripts/TicTacToe.sol\":2020:2030  board[j+3] */\n      0x9\n      dup2\n      lt\n      iszero\n      iszero\n      tag_78\n      jumpi\n      invalid\n    tag_78:\n      add\n      sload\n        /* \"scripts/TicTacToe.sol\":2032:2037  board */\n      0x4\n        /* \"scripts/TicTacToe.sol\":2040:2041  6 */\n      0x6\n        /* \"scripts/TicTacToe.sol\":2038:2039  j */\n      dup7\n        /* \"scripts/TicTacToe.sol\":2038:2041  j+6 */\n      add\n        /* \"scripts/TicTacToe.sol\":2032:2042  board[j+6] */\n      0x9\n      dup2\n      lt\n      iszero\n      iszero\n      tag_80\n      jumpi\n      invalid\n    tag_80:\n      add\n      sload\n        /* \"scripts/TicTacToe.sol\":1996:2009  _threeInALine */\n      tag_68\n        /* \"scripts/TicTacToe.sol\":1996:2043  _threeInALine(board[j], board[j+3], board[j+6]) */\n      jump\t// in\n    tag_75:\n        /* \"scripts/TicTacToe.sol\":1993:2084  if(_threeInALine(board[j], board[j+3], board[j+6])){... */\n      iszero\n      tag_82\n      jumpi\n        /* \"scripts/TicTacToe.sol\":2065:2070  board */\n      0x4\n        /* \"scripts/TicTacToe.sol\":2071:2072  j */\n      dup3\n        /* \"scripts/TicTacToe.sol\":2065:2073  board[j] */\n      0x9\n      dup2\n      lt\n      iszero\n      iszero\n      tag_83\n      jumpi\n      invalid\n    tag_83:\n      add\n      sload\n        /* \"scripts/TicTacToe.sol\":2056:2062  status */\n      0x3\n        /* \"scripts/TicTacToe.sol\":2056:2073  status = board[j] */\n      dup2\n      swap1\n      sstore\n      pop\n        /* \"scripts/TicTacToe.sol\":1993:2084  if(_threeInALine(board[j], board[j+3], board[j+6])){... */\n    tag_82:\n        /* \"scripts/TicTacToe.sol\":1979:1982  j++ */\n      dup2\n      dup1\n      0x1\n      add\n      swap3\n      pop\n      pop\n        /* \"scripts/TicTacToe.sol\":1956:2092  for(uint j = 0; j < 3; j++){... */\n      jump(tag_72)\n    tag_73:\n        /* \"scripts/TicTacToe.sol\":2128:2171  _threeInALine(board[0], board[4], board[8]) */\n      tag_85\n        /* \"scripts/TicTacToe.sol\":2142:2147  board */\n      0x4\n        /* \"scripts/TicTacToe.sol\":2148:2149  0 */\n      0x0\n        /* \"scripts/TicTacToe.sol\":2142:2150  board[0] */\n      0x9\n      dup2\n      lt\n      iszero\n      iszero\n      tag_86\n      jumpi\n      invalid\n    tag_86:\n      add\n      sload\n        /* \"scripts/TicTacToe.sol\":2152:2157  board */\n      0x4\n        /* \"scripts/TicTacToe.sol\":2158:2159  4 */\n      dup1\n        /* \"scripts/TicTacToe.sol\":2152:2160  board[4] */\n      0x9\n      dup2\n      lt\n      iszero\n      iszero\n      tag_88\n      jumpi\n      invalid\n    tag_88:\n      add\n      sload\n        /* \"scripts/TicTacToe.sol\":2162:2167  board */\n      0x4\n        /* \"scripts/TicTacToe.sol\":2168:2169  8 */\n      0x8\n        /* \"scripts/TicTacToe.sol\":2162:2170  board[8] */\n      0x9\n      dup2\n      lt\n      iszero\n      iszero\n      tag_90\n      jumpi\n      invalid\n    tag_90:\n      add\n      sload\n        /* \"scripts/TicTacToe.sol\":2128:2141  _threeInALine */\n      tag_68\n        /* \"scripts/TicTacToe.sol\":2128:2171  _threeInALine(board[0], board[4], board[8]) */\n      jump\t// in\n    tag_85:\n        /* \"scripts/TicTacToe.sol\":2128:2228  _threeInALine(board[0], board[4], board[8]) || ... */\n      dup1\n      tag_92\n      jumpi\n      pop\n        /* \"scripts/TicTacToe.sol\":2185:2228  _threeInALine(board[2], board[4], board[6]) */\n      tag_93\n        /* \"scripts/TicTacToe.sol\":2199:2204  board */\n      0x4\n        /* \"scripts/TicTacToe.sol\":2205:2206  2 */\n      0x2\n        /* \"scripts/TicTacToe.sol\":2199:2207  board[2] */\n      0x9\n      dup2\n      lt\n      iszero\n      iszero\n      tag_94\n      jumpi\n      invalid\n    tag_94:\n      add\n      sload\n        /* \"scripts/TicTacToe.sol\":2209:2214  board */\n      0x4\n        /* \"scripts/TicTacToe.sol\":2215:2216  4 */\n      dup1\n        /* \"scripts/TicTacToe.sol\":2209:2217  board[4] */\n      0x9\n      dup2\n      lt\n      iszero\n      iszero\n      tag_96\n      jumpi\n      invalid\n    tag_96:\n      add\n      sload\n        /* \"scripts/TicTacToe.sol\":2219:2224  board */\n      0x4\n        /* \"scripts/TicTacToe.sol\":2225:2226  6 */\n      0x6\n        /* \"scripts/TicTacToe.sol\":2219:2227  board[6] */\n      0x9\n      dup2\n      lt\n      iszero\n      iszero\n      tag_98\n      jumpi\n      invalid\n    tag_98:\n      add\n      sload\n        /* \"scripts/TicTacToe.sol\":2185:2198  _threeInALine */\n      tag_68\n        /* \"scripts/TicTacToe.sol\":2185:2228  _threeInALine(board[2], board[4], board[6]) */\n      jump\t// in\n    tag_93:\n        /* \"scripts/TicTacToe.sol\":2128:2228  _threeInALine(board[0], board[4], board[8]) || ... */\n    tag_92:\n        /* \"scripts/TicTacToe.sol\":2125:2267  if(_threeInALine(board[0], board[4], board[8]) || ... */\n      iszero\n      tag_100\n      jumpi\n        /* \"scripts/TicTacToe.sol\":2250:2255  board */\n      0x4\n        /* \"scripts/TicTacToe.sol\":2256:2257  4 */\n      dup1\n        /* \"scripts/TicTacToe.sol\":2250:2258  board[4] */\n      0x9\n      dup2\n      lt\n      iszero\n      iszero\n      tag_101\n      jumpi\n      invalid\n    tag_101:\n      add\n      sload\n        /* \"scripts/TicTacToe.sol\":2241:2247  status */\n      0x3\n        /* \"scripts/TicTacToe.sol\":2241:2258  status = board[4] */\n      dup2\n      swap1\n      sstore\n      pop\n        /* \"scripts/TicTacToe.sol\":2125:2267  if(_threeInALine(board[0], board[4], board[8]) || ... */\n    tag_100:\n        /* \"scripts/TicTacToe.sol\":2318:2319  0 */\n      0x0\n        /* \"scripts/TicTacToe.sol\":2309:2319  uint k = 0 */\n      swap1\n      pop\n        /* \"scripts/TicTacToe.sol\":2305:2445  for(uint k = 0; k < 9; k++){... */\n    tag_103:\n        /* \"scripts/TicTacToe.sol\":2325:2326  9 */\n      0x9\n        /* \"scripts/TicTacToe.sol\":2321:2322  k */\n      dup2\n        /* \"scripts/TicTacToe.sol\":2321:2326  k < 9 */\n      lt\n        /* \"scripts/TicTacToe.sol\":2305:2445  for(uint k = 0; k < 9; k++){... */\n      iszero\n      tag_104\n      jumpi\n        /* \"scripts/TicTacToe.sol\":2357:2358  0 */\n      0x0\n        /* \"scripts/TicTacToe.sol\":2345:2350  board */\n      0x4\n        /* \"scripts/TicTacToe.sol\":2351:2352  k */\n      dup3\n        /* \"scripts/TicTacToe.sol\":2345:2353  board[k] */\n      0x9\n      dup2\n      lt\n      iszero\n      iszero\n      tag_106\n      jumpi\n      invalid\n    tag_106:\n      add\n      sload\n        /* \"scripts/TicTacToe.sol\":2345:2358  board[k] == 0 */\n      eq\n        /* \"scripts/TicTacToe.sol\":2342:2437  if(board[k] == 0){... */\n      iszero\n      tag_108\n      jumpi\n        /* \"scripts/TicTacToe.sol\":2371:2376  break */\n      jump(tag_104)\n        /* \"scripts/TicTacToe.sol\":2342:2437  if(board[k] == 0){... */\n    tag_108:\n        /* \"scripts/TicTacToe.sol\":2402:2403  8 */\n      0x8\n        /* \"scripts/TicTacToe.sol\":2397:2398  k */\n      dup2\n        /* \"scripts/TicTacToe.sol\":2397:2403  k == 8 */\n      eq\n        /* \"scripts/TicTacToe.sol\":2393:2437  if (k == 8){... */\n      iszero\n      tag_110\n      jumpi\n        /* \"scripts/TicTacToe.sol\":2425:2426  3 */\n      0x3\n        /* \"scripts/TicTacToe.sol\":2416:2422  status */\n      dup1\n        /* \"scripts/TicTacToe.sol\":2416:2426  status = 3 */\n      dup2\n      swap1\n      sstore\n      pop\n        /* \"scripts/TicTacToe.sol\":2393:2437  if (k == 8){... */\n    tag_110:\n        /* \"scripts/TicTacToe.sol\":2328:2331  k++ */\n      dup1\n      dup1\n      0x1\n      add\n      swap2\n      pop\n      pop\n        /* \"scripts/TicTacToe.sol\":2305:2445  for(uint k = 0; k < 9; k++){... */\n      jump(tag_103)\n    tag_104:\n        /* \"scripts/TicTacToe.sol\":3560:3561  _ */\n      pop\n      pop\n      pop\n      pop\n        /* \"scripts/TicTacToe.sol\":3688:3793  function move(uint pos) public _validMove(pos) _checkStatus(pos) _myTurn {... */\n      pop\n      pop\n      jump\t// out\n        /* \"scripts/TicTacToe.sol\":238:258  uint public turn = 1 */\n    tag_26:\n      sload(0x2)\n      dup2\n      jump\t// out\n        /* \"scripts/TicTacToe.sol\":3079:3197  function validMove(uint pos) public view returns (bool) {... */\n    tag_29:\n        /* \"scripts/TicTacToe.sol\":3129:3133  bool */\n      0x0\n        /* \"scripts/TicTacToe.sol\":3164:3165  0 */\n      dup1\n        /* \"scripts/TicTacToe.sol\":3150:3155  board */\n      0x4\n        /* \"scripts/TicTacToe.sol\":3156:3159  pos */\n      dup4\n        /* \"scripts/TicTacToe.sol\":3150:3160  board[pos] */\n      0x9\n      dup2\n      lt\n      iszero\n      iszero\n      tag_112\n      jumpi\n      invalid\n    tag_112:\n      add\n      sload\n        /* \"scripts/TicTacToe.sol\":3150:3165  board[pos] == 0 */\n      eq\n        /* \"scripts/TicTacToe.sol\":3150:3190  board[pos] == 0 && (pos >= 0 && pos < 9) */\n      dup1\n      iszero\n      tag_114\n      jumpi\n      pop\n        /* \"scripts/TicTacToe.sol\":3177:3178  0 */\n      0x0\n        /* \"scripts/TicTacToe.sol\":3170:3173  pos */\n      dup3\n        /* \"scripts/TicTacToe.sol\":3170:3178  pos >= 0 */\n      lt\n      iszero\n        /* \"scripts/TicTacToe.sol\":3170:3189  pos >= 0 && pos < 9 */\n      dup1\n      iszero\n      tag_115\n      jumpi\n      pop\n        /* \"scripts/TicTacToe.sol\":3188:3189  9 */\n      0x9\n        /* \"scripts/TicTacToe.sol\":3182:3185  pos */\n      dup3\n        /* \"scripts/TicTacToe.sol\":3182:3189  pos < 9 */\n      lt\n        /* \"scripts/TicTacToe.sol\":3170:3189  pos >= 0 && pos < 9 */\n    tag_115:\n        /* \"scripts/TicTacToe.sol\":3150:3190  board[pos] == 0 && (pos >= 0 && pos < 9) */\n    tag_114:\n        /* \"scripts/TicTacToe.sol\":3143:3190  return board[pos] == 0 && (pos >= 0 && pos < 9) */\n      swap1\n      pop\n        /* \"scripts/TicTacToe.sol\":3079:3197  function validMove(uint pos) public view returns (bool) {... */\n      swap2\n      swap1\n      pop\n      jump\t// out\n        /* \"scripts/TicTacToe.sol\":126:151  address[2] public players */\n    tag_32:\n      0x0\n      dup2\n      0x2\n      dup2\n      lt\n      iszero\n      iszero\n      tag_116\n      jumpi\n      invalid\n    tag_116:\n      add\n      0x0\n      swap2\n      pop\n      sload\n      swap1\n      0x100\n      exp\n      swap1\n      div\n      0xffffffffffffffffffffffffffffffffffffffff\n      and\n      dup2\n      jump\t// out\n        /* \"scripts/TicTacToe.sol\":1007:1138  function _threeInALine(uint a, uint b, uint c) private view returns (bool){... */\n    tag_68:\n        /* \"scripts/TicTacToe.sol\":1076:1080  bool */\n      0x0\n        /* \"scripts/TicTacToe.sol\":1103:1104  0 */\n      dup1\n        /* \"scripts/TicTacToe.sol\":1098:1099  a */\n      dup5\n        /* \"scripts/TicTacToe.sol\":1098:1104  a == 0 */\n      eq\n        /* \"scripts/TicTacToe.sol\":1098:1131  a == 0 ? false : a == b && b == c */\n      tag_119\n      jumpi\n        /* \"scripts/TicTacToe.sol\":1120:1121  b */\n      dup3\n        /* \"scripts/TicTacToe.sol\":1115:1116  a */\n      dup5\n        /* \"scripts/TicTacToe.sol\":1115:1121  a == b */\n      eq\n        /* \"scripts/TicTacToe.sol\":1115:1131  a == b && b == c */\n      dup1\n      iszero\n      tag_120\n      jumpi\n      pop\n        /* \"scripts/TicTacToe.sol\":1130:1131  c */\n      dup2\n        /* \"scripts/TicTacToe.sol\":1125:1126  b */\n      dup4\n        /* \"scripts/TicTacToe.sol\":1125:1131  b == c */\n      eq\n        /* \"scripts/TicTacToe.sol\":1115:1131  a == b && b == c */\n    tag_120:\n        /* \"scripts/TicTacToe.sol\":1098:1131  a == 0 ? false : a == b && b == c */\n      jump(tag_121)\n    tag_119:\n        /* \"scripts/TicTacToe.sol\":1107:1112  false */\n      0x0\n        /* \"scripts/TicTacToe.sol\":1098:1131  a == 0 ? false : a == b && b == c */\n    tag_121:\n        /* \"scripts/TicTacToe.sol\":1091:1131  return a == 0 ? false : a == b && b == c */\n      swap1\n      pop\n        /* \"scripts/TicTacToe.sol\":1007:1138  function _threeInALine(uint a, uint b, uint c) private view returns (bool){... */\n      swap4\n      swap3\n      pop\n      pop\n      pop\n      jump\t// out\n        /* \"scripts/TicTacToe.sol\":101:3963  contract TicTacToe {... */\n    tag_37:\n      0x120\n      mload(0x40)\n      swap1\n      dup2\n      add\n      0x40\n      mstore\n      dup1\n      0x9\n      swap1\n        /* \"--CODEGEN--\":29:31   */\n      0x20\n        /* \"--CODEGEN--\":21:27   */\n      dup3\n        /* \"--CODEGEN--\":17:32   */\n      mul\n        /* \"--CODEGEN--\":117:121   */\n      dup1\n        /* \"--CODEGEN--\":105:115   */\n      codesize\n        /* \"--CODEGEN--\":97:103   */\n      dup4\n        /* \"--CODEGEN--\":88:122   */\n      codecopy\n        /* \"--CODEGEN--\":148:152   */\n      dup1\n        /* \"--CODEGEN--\":140:146   */\n      dup3\n        /* \"--CODEGEN--\":136:153   */\n      add\n        /* \"--CODEGEN--\":126:153   */\n      swap2\n      pop\n        /* \"--CODEGEN--\":0:157   */\n      pop\n        /* \"scripts/TicTacToe.sol\":101:3963  contract TicTacToe {... */\n      swap1\n      pop\n      pop\n      swap1\n      jump\t// out\n\n    auxdata: 0xa165627a7a72305820411c0d09e5352179f284a74e5eff29af5afa7e16bf3d060741bb7b03fc5d62bf0029\n}\n",
				"bytecode": {
					"linkReferences": {},
					"object": "6080604052600160025534801561001557600080fd5b50604051602080610a6e833981018060405281019080805190602001909291905050508073ffffffffffffffffffffffffffffffffffffffff163373ffffffffffffffffffffffffffffffffffffffff16141515156100dc576040517f08c379a000000000000000000000000000000000000000000000000000000000815260040180806020018281038252600c8152602001807f4e6f2073656c6620706c6179000000000000000000000000000000000000000081525060200191505060405180910390fd5b60408051908101604052803373ffffffffffffffffffffffffffffffffffffffff1673ffffffffffffffffffffffffffffffffffffffff1681526020018273ffffffffffffffffffffffffffffffffffffffff1673ffffffffffffffffffffffffffffffffffffffff168152506000906002610159929190610160565b5050610220565b82600281019282156101cc579160200282015b828111156101cb5782518260006101000a81548173ffffffffffffffffffffffffffffffffffffffff021916908373ffffffffffffffffffffffffffffffffffffffff16021790555091602001919060010190610173565b5b5090506101d991906101dd565b5090565b61021d91905b8082111561021957600081816101000a81549073ffffffffffffffffffffffffffffffffffffffff0219169055506001016101e3565b5090565b90565b61083f8061022f6000396000f300608060405260043610610083576000357c0100000000000000000000000000000000000000000000000000000000900463ffffffff1680631ed4557f14610088578063200d2ed2146100b757806349a9798d146100e257806387cb15f7146101355780638b29990314610162578063b4c95a5c1461018d578063f71d96cb146101d2575b600080fd5b34801561009457600080fd5b5061009d61023f565b604051808215151515815260200191505060405180910390f35b3480156100c357600080fd5b506100cc6102aa565b6040518082815260200191505060405180910390f35b3480156100ee57600080fd5b506100f76102b0565b6040518082600960200280838360005b83811015610122578082015181840152602081019050610107565b5050505090500191505060405180910390f35b34801561014157600080fd5b50610160600480360381019080803590602001909291905050506102fb565b005b34801561016e57600080fd5b50610177610757565b6040518082815260200191505060405180910390f35b34801561019957600080fd5b506101b86004803603810190808035906020019092919050505061075d565b604051808215151515815260200191505060405180910390f35b3480156101de57600080fd5b506101fd60048036038101908080359060200190929190505050610792565b604051808273ffffffffffffffffffffffffffffffffffffffff1673ffffffffffffffffffffffffffffffffffffffff16815260200191505060405180910390f35b60003373ffffffffffffffffffffffffffffffffffffffff16600060016002540360028110151561026c57fe5b0160009054906101000a900473ffffffffffffffffffffffffffffffffffffffff1673ffffffffffffffffffffffffffffffffffffffff1614905090565b60035481565b6102b86107ef565b60046009806020026040519081016040528092919082600980156102f1576020028201915b8154815260200190600101908083116102dd575b5050505050905090565b806000811015801561030d5750600981105b15156103a7576040517f08c379a000000000000000000000000000000000000000000000000000000000815260040180806020018281038252603b8152602001807f494e56414c4944204d4f56453a204d6f766573206d757374206265206265747781526020017f65656e20626f61726420706f736974696f6e73203020616e642038000000000081525060400191505060405180910390fd5b60006004826009811015156103b857fe5b0154141515610455576040517f08c379a000000000000000000000000000000000000000000000000000000000815260040180806020018281038252602d8152602001807f494e56414c4944204d4f56453a20426f61726420706f736974696f6e20616c7281526020017f65616479206f636375706965640000000000000000000000000000000000000081525060400191505060405180910390fd5b816000806000806003541415156104d4576040517f08c379a000000000000000000000000000000000000000000000000000000000815260040180806020018281038252601b8152602001807f47414d45204f5645523a205468652067616d65206973206f766572000000000081525060200191505060405180910390fd5b3373ffffffffffffffffffffffffffffffffffffffff1660006001600254036002811015156104ff57fe5b0160009054906101000a900473ffffffffffffffffffffffffffffffffffffffff1673ffffffffffffffffffffffffffffffffffffffff1614151561054357600080fd5b60025460048760098110151561055557fe5b018190555060016002541461056b57600161056e565b60025b60ff16600281905550600092505b60098310156105ee576105c660048460098110151561059757fe5b01546004600186016009811015156105ab57fe5b01546004600287016009811015156105bf57fe5b01546107c7565b156105e3576004836009811015156105da57fe5b01546003819055505b60038301925061057c565b600091505b60038210156106675761063d60048360098110151561060e57fe5b015460046003850160098110151561062257fe5b015460046006860160098110151561063657fe5b01546107c7565b1561065a5760048260098110151561065157fe5b01546003819055505b81806001019250506105f3565b6106a46004600060098110151561067a57fe5b015460048060098110151561068b57fe5b01546004600860098110151561069d57fe5b01546107c7565b806106e857506106e7600460026009811015156106bd57fe5b01546004806009811015156106ce57fe5b0154600460066009811015156106e057fe5b01546107c7565b5b15610705576004806009811015156106fc57fe5b01546003819055505b600090505b600981101561074f57600060048260098110151561072457fe5b015414156107315761074f565b600881141561074257600380819055505b808060010191505061070a565b505050505050565b60025481565b60008060048360098110151561076f57fe5b015414801561078b57506000821015801561078a5750600982105b5b9050919050565b6000816002811015156107a157fe5b016000915054906101000a900473ffffffffffffffffffffffffffffffffffffffff1681565b60008084146107e35782841480156107de57508183145b6107e6565b60005b90509392505050565b610120604051908101604052806009906020820280388339808201915050905050905600a165627a7a72305820411c0d09e5352179f284a74e5eff29af5afa7e16bf3d060741bb7b03fc5d62bf0029",
					"opcodes": "PUSH1 0x80 PUSH1 0x40 MSTORE PUSH1 0x1 PUSH1 0x2 SSTORE CALLVALUE DUP1 ISZERO PUSH2 0x15 JUMPI PUSH1 0x0 DUP1 REVERT JUMPDEST POP PUSH1 0x40 MLOAD PUSH1 0x20 DUP1 PUSH2 0xA6E DUP4 CODECOPY DUP2 ADD DUP1 PUSH1 0x40 MSTORE DUP2 ADD SWAP1 DUP1 DUP1 MLOAD SWAP1 PUSH1 0x20 ADD SWAP1 SWAP3 SWAP2 SWAP1 POP POP POP DUP1 PUSH20 0xFFFFFFFFFFFFFFFFFFFFFFFFFFFFFFFFFFFFFFFF AND CALLER PUSH20 0xFFFFFFFFFFFFFFFFFFFFFFFFFFFFFFFFFFFFFFFF AND EQ ISZERO ISZERO ISZERO PUSH2 0xDC JUMPI PUSH1 0x40 MLOAD PUSH32 0x8C379A000000000000000000000000000000000000000000000000000000000 DUP2 MSTORE PUSH1 0x4 ADD DUP1 DUP1 PUSH1 0x20 ADD DUP3 DUP2 SUB DUP3 MSTORE PUSH1 0xC DUP2 MSTORE PUSH1 0x20 ADD DUP1 PUSH32 0x4E6F2073656C6620706C61790000000000000000000000000000000000000000 DUP2 MSTORE POP PUSH1 0x20 ADD SWAP2 POP POP PUSH1 0x40 MLOAD DUP1 SWAP2 SUB SWAP1 REVERT JUMPDEST PUSH1 0x40 DUP1 MLOAD SWAP1 DUP2 ADD PUSH1 0x40 MSTORE DUP1 CALLER PUSH20 0xFFFFFFFFFFFFFFFFFFFFFFFFFFFFFFFFFFFFFFFF AND PUSH20 0xFFFFFFFFFFFFFFFFFFFFFFFFFFFFFFFFFFFFFFFF AND DUP2 MSTORE PUSH1 0x20 ADD DUP3 PUSH20 0xFFFFFFFFFFFFFFFFFFFFFFFFFFFFFFFFFFFFFFFF AND PUSH20 0xFFFFFFFFFFFFFFFFFFFFFFFFFFFFFFFFFFFFFFFF AND DUP2 MSTORE POP PUSH1 0x0 SWAP1 PUSH1 0x2 PUSH2 0x159 SWAP3 SWAP2 SWAP1 PUSH2 0x160 JUMP JUMPDEST POP POP PUSH2 0x220 JUMP JUMPDEST DUP3 PUSH1 0x2 DUP2 ADD SWAP3 DUP3 ISZERO PUSH2 0x1CC JUMPI SWAP2 PUSH1 0x20 MUL DUP3 ADD JUMPDEST DUP3 DUP2 GT ISZERO PUSH2 0x1CB JUMPI DUP3 MLOAD DUP3 PUSH1 0x0 PUSH2 0x100 EXP DUP2 SLOAD DUP2 PUSH20 0xFFFFFFFFFFFFFFFFFFFFFFFFFFFFFFFFFFFFFFFF MUL NOT AND SWAP1 DUP4 PUSH20 0xFFFFFFFFFFFFFFFFFFFFFFFFFFFFFFFFFFFFFFFF AND MUL OR SWAP1 SSTORE POP SWAP2 PUSH1 0x20 ADD SWAP2 SWAP1 PUSH1 0x1 ADD SWAP1 PUSH2 0x173 JUMP JUMPDEST JUMPDEST POP SWAP1 POP PUSH2 0x1D9 SWAP2 SWAP1 PUSH2 0x1DD JUMP JUMPDEST POP SWAP1 JUMP JUMPDEST PUSH2 0x21D SWAP2 SWAP1 JUMPDEST DUP1 DUP3 GT ISZERO PUSH2 0x219 JUMPI PUSH1 0x0 DUP2 DUP2 PUSH2 0x100 EXP DUP2 SLOAD SWAP1 PUSH20 0xFFFFFFFFFFFFFFFFFFFFFFFFFFFFFFFFFFFFFFFF MUL NOT AND SWAP1 SSTORE POP PUSH1 0x1 ADD PUSH2 0x1E3 JUMP JUMPDEST POP SWAP1 JUMP JUMPDEST SWAP1 JUMP JUMPDEST PUSH2 0x83F DUP1 PUSH2 0x22F PUSH1 0x0 CODECOPY PUSH1 0x0 RETURN STOP PUSH1 0x80 PUSH1 0x40 MSTORE PUSH1 0x4 CALLDATASIZE LT PUSH2 0x83 JUMPI PUSH1 0x0 CALLDATALOAD PUSH29 0x100000000000000000000000000000000000000000000000000000000 SWAP1 DIV PUSH4 0xFFFFFFFF AND DUP1 PUSH4 0x1ED4557F EQ PUSH2 0x88 JUMPI DUP1 PUSH4 0x200D2ED2 EQ PUSH2 0xB7 JUMPI DUP1 PUSH4 0x49A9798D EQ PUSH2 0xE2 JUMPI DUP1 PUSH4 0x87CB15F7 EQ PUSH2 0x135 JUMPI DUP1 PUSH4 0x8B299903 EQ PUSH2 0x162 JUMPI DUP1 PUSH4 0xB4C95A5C EQ PUSH2 0x18D JUMPI DUP1 PUSH4 0xF71D96CB EQ PUSH2 0x1D2 JUMPI JUMPDEST PUSH1 0x0 DUP1 REVERT JUMPDEST CALLVALUE DUP1 ISZERO PUSH2 0x94 JUMPI PUSH1 0x0 DUP1 REVERT JUMPDEST POP PUSH2 0x9D PUSH2 0x23F JUMP JUMPDEST PUSH1 0x40 MLOAD DUP1 DUP3 ISZERO ISZERO ISZERO ISZERO DUP2 MSTORE PUSH1 0x20 ADD SWAP2 POP POP PUSH1 0x40 MLOAD DUP1 SWAP2 SUB SWAP1 RETURN JUMPDEST CALLVALUE DUP1 ISZERO PUSH2 0xC3 JUMPI PUSH1 0x0 DUP1 REVERT JUMPDEST POP PUSH2 0xCC PUSH2 0x2AA JUMP JUMPDEST PUSH1 0x40 MLOAD DUP1 DUP3 DUP2 MSTORE PUSH1 0x20 ADD SWAP2 POP POP PUSH1 0x40 MLOAD DUP1 SWAP2 SUB SWAP1 RETURN JUMPDEST CALLVALUE DUP1 ISZERO PUSH2 0xEE JUMPI PUSH1 0x0 DUP1 REVERT JUMPDEST POP PUSH2 0xF7 PUSH2 0x2B0 JUMP JUMPDEST PUSH1 0x40 MLOAD DUP1 DUP3 PUSH1 0x9 PUSH1 0x20 MUL DUP1 DUP4 DUP4 PUSH1 0x0 JUMPDEST DUP4 DUP2 LT ISZERO PUSH2 0x122 JUMPI DUP1 DUP3 ADD MLOAD DUP2 DUP5 ADD MSTORE PUSH1 0x20 DUP2 ADD SWAP1 POP PUSH2 0x107 JUMP JUMPDEST POP POP POP POP SWAP1 POP ADD SWAP2 POP POP PUSH1 0x40 MLOAD DUP1 SWAP2 SUB SWAP1 RETURN JUMPDEST CALLVALUE DUP1 ISZERO PUSH2 0x141 JUMPI PUSH1 0x0 DUP1 REVERT JUMPDEST POP PUSH2 0x160 PUSH1 0x4 DUP1 CALLDATASIZE SUB DUP2 ADD SWAP1 DUP1 DUP1 CALLDATALOAD SWAP1 PUSH1 0x20 ADD SWAP1 SWAP3 SWAP2 SWAP1 POP POP POP PUSH2 0x2FB JUMP JUMPDEST STOP JUMPDEST CALLVALUE DUP1 ISZERO PUSH2 0x16E JUMPI PUSH1 0x0 DUP1 REVERT JUMPDEST POP PUSH2 0x177 PUSH2 0x757 JUMP JUMPDEST PUSH1 0x40 MLOAD DUP1 DUP3 DUP2 MSTORE PUSH1 0x20 ADD SWAP2 POP POP PUSH1 0x40 MLOAD DUP1 SWAP2 SUB SWAP1 RETURN JUMPDEST CALLVALUE DUP1 ISZERO PUSH2 0x199 JUMPI PUSH1 0x0 DUP1 REVERT JUMPDEST POP PUSH2 0x1B8 PUSH1 0x4 DUP1 CALLDATASIZE SUB DUP2 ADD SWAP1 DUP1 DUP1 CALLDATALOAD SWAP1 PUSH1 0x20 ADD SWAP1 SWAP3 SWAP2 SWAP1 POP POP POP PUSH2 0x75D JUMP JUMPDEST PUSH1 0x40 MLOAD DUP1 DUP3 ISZERO ISZERO ISZERO ISZERO DUP2 MSTORE PUSH1 0x20 ADD SWAP2 POP POP PUSH1 0x40 MLOAD DUP1 SWAP2 SUB SWAP1 RETURN JUMPDEST CALLVALUE DUP1 ISZERO PUSH2 0x1DE JUMPI PUSH1 0x0 DUP1 REVERT JUMPDEST POP PUSH2 0x1FD PUSH1 0x4 DUP1 CALLDATASIZE SUB DUP2 ADD SWAP1 DUP1 DUP1 CALLDATALOAD SWAP1 PUSH1 0x20 ADD SWAP1 SWAP3 SWAP2 SWAP1 POP POP POP PUSH2 0x792 JUMP JUMPDEST PUSH1 0x40 MLOAD DUP1 DUP3 PUSH20 0xFFFFFFFFFFFFFFFFFFFFFFFFFFFFFFFFFFFFFFFF AND PUSH20 0xFFFFFFFFFFFFFFFFFFFFFFFFFFFFFFFFFFFFFFFF AND DUP2 MSTORE PUSH1 0x20 ADD SWAP2 POP POP PUSH1 0x40 MLOAD DUP1 SWAP2 SUB SWAP1 RETURN JUMPDEST PUSH1 0x0 CALLER PUSH20 0xFFFFFFFFFFFFFFFFFFFFFFFFFFFFFFFFFFFFFFFF AND PUSH1 0x0 PUSH1 0x1 PUSH1 0x2 SLOAD SUB PUSH1 0x2 DUP2 LT ISZERO ISZERO PUSH2 0x26C JUMPI INVALID JUMPDEST ADD PUSH1 0x0 SWAP1 SLOAD SWAP1 PUSH2 0x100 EXP SWAP1 DIV PUSH20 0xFFFFFFFFFFFFFFFFFFFFFFFFFFFFFFFFFFFFFFFF AND PUSH20 0xFFFFFFFFFFFFFFFFFFFFFFFFFFFFFFFFFFFFFFFF AND EQ SWAP1 POP SWAP1 JUMP JUMPDEST PUSH1 0x3 SLOAD DUP2 JUMP JUMPDEST PUSH2 0x2B8 PUSH2 0x7EF JUMP JUMPDEST PUSH1 0x4 PUSH1 0x9 DUP1 PUSH1 0x20 MUL PUSH1 0x40 MLOAD SWAP1 DUP2 ADD PUSH1 0x40 MSTORE DUP1 SWAP3 SWAP2 SWAP1 DUP3 PUSH1 0x9 DUP1 ISZERO PUSH2 0x2F1 JUMPI PUSH1 0x20 MUL DUP3 ADD SWAP2 JUMPDEST DUP2 SLOAD DUP2 MSTORE PUSH1 0x20 ADD SWAP1 PUSH1 0x1 ADD SWAP1 DUP1 DUP4 GT PUSH2 0x2DD JUMPI JUMPDEST POP POP POP POP POP SWAP1 POP SWAP1 JUMP JUMPDEST DUP1 PUSH1 0x0 DUP2 LT ISZERO DUP1 ISZERO PUSH2 0x30D JUMPI POP PUSH1 0x9 DUP2 LT JUMPDEST ISZERO ISZERO PUSH2 0x3A7 JUMPI PUSH1 0x40 MLOAD PUSH32 0x8C379A000000000000000000000000000000000000000000000000000000000 DUP2 MSTORE PUSH1 0x4 ADD DUP1 DUP1 PUSH1 0x20 ADD DUP3 DUP2 SUB DUP3 MSTORE PUSH1 0x3B DUP2 MSTORE PUSH1 0x20 ADD DUP1 PUSH32 0x494E56414C4944204D4F56453A204D6F766573206D7573742062652062657477 DUP2 MSTORE PUSH1 0x20 ADD PUSH32 0x65656E20626F61726420706F736974696F6E73203020616E6420380000000000 DUP2 MSTORE POP PUSH1 0x40 ADD SWAP2 POP POP PUSH1 0x40 MLOAD DUP1 SWAP2 SUB SWAP1 REVERT JUMPDEST PUSH1 0x0 PUSH1 0x4 DUP3 PUSH1 0x9 DUP2 LT ISZERO ISZERO PUSH2 0x3B8 JUMPI INVALID JUMPDEST ADD SLOAD EQ ISZERO ISZERO PUSH2 0x455 JUMPI PUSH1 0x40 MLOAD PUSH32 0x8C379A000000000000000000000000000000000000000000000000000000000 DUP2 MSTORE PUSH1 0x4 ADD DUP1 DUP1 PUSH1 0x20 ADD DUP3 DUP2 SUB DUP3 MSTORE PUSH1 0x2D DUP2 MSTORE PUSH1 0x20 ADD DUP1 PUSH32 0x494E56414C4944204D4F56453A20426F61726420706F736974696F6E20616C72 DUP2 MSTORE PUSH1 0x20 ADD PUSH32 0x65616479206F6363757069656400000000000000000000000000000000000000 DUP2 MSTORE POP PUSH1 0x40 ADD SWAP2 POP POP PUSH1 0x40 MLOAD DUP1 SWAP2 SUB SWAP1 REVERT JUMPDEST DUP2 PUSH1 0x0 DUP1 PUSH1 0x0 DUP1 PUSH1 0x3 SLOAD EQ ISZERO ISZERO PUSH2 0x4D4 JUMPI PUSH1 0x40 MLOAD PUSH32 0x8C379A000000000000000000000000000000000000000000000000000000000 DUP2 MSTORE PUSH1 0x4 ADD DUP1 DUP1 PUSH1 0x20 ADD DUP3 DUP2 SUB DUP3 MSTORE PUSH1 0x1B DUP2 MSTORE PUSH1 0x20 ADD DUP1 PUSH32 0x47414D45204F5645523A205468652067616D65206973206F7665720000000000 DUP2 MSTORE POP PUSH1 0x20 ADD SWAP2 POP POP PUSH1 0x40 MLOAD DUP1 SWAP2 SUB SWAP1 REVERT JUMPDEST CALLER PUSH20 0xFFFFFFFFFFFFFFFFFFFFFFFFFFFFFFFFFFFFFFFF AND PUSH1 0x0 PUSH1 0x1 PUSH1 0x2 SLOAD SUB PUSH1 0x2 DUP2 LT ISZERO ISZERO PUSH2 0x4FF JUMPI INVALID JUMPDEST ADD PUSH1 0x0 SWAP1 SLOAD SWAP1 PUSH2 0x100 EXP SWAP1 DIV PUSH20 0xFFFFFFFFFFFFFFFFFFFFFFFFFFFFFFFFFFFFFFFF AND PUSH20 0xFFFFFFFFFFFFFFFFFFFFFFFFFFFFFFFFFFFFFFFF AND EQ ISZERO ISZERO PUSH2 0x543 JUMPI PUSH1 0x0 DUP1 REVERT JUMPDEST PUSH1 0x2 SLOAD PUSH1 0x4 DUP8 PUSH1 0x9 DUP2 LT ISZERO ISZERO PUSH2 0x555 JUMPI INVALID JUMPDEST ADD DUP2 SWAP1 SSTORE POP PUSH1 0x1 PUSH1 0x2 SLOAD EQ PUSH2 0x56B JUMPI PUSH1 0x1 PUSH2 0x56E JUMP JUMPDEST PUSH1 0x2 JUMPDEST PUSH1 0xFF AND PUSH1 0x2 DUP2 SWAP1 SSTORE POP PUSH1 0x0 SWAP3 POP JUMPDEST PUSH1 0x9 DUP4 LT ISZERO PUSH2 0x5EE JUMPI PUSH2 0x5C6 PUSH1 0x4 DUP5 PUSH1 0x9 DUP2 LT ISZERO ISZERO PUSH2 0x597 JUMPI INVALID JUMPDEST ADD SLOAD PUSH1 0x4 PUSH1 0x1 DUP7 ADD PUSH1 0x9 DUP2 LT ISZERO ISZERO PUSH2 0x5AB JUMPI INVALID JUMPDEST ADD SLOAD PUSH1 0x4 PUSH1 0x2 DUP8 ADD PUSH1 0x9 DUP2 LT ISZERO ISZERO PUSH2 0x5BF JUMPI INVALID JUMPDEST ADD SLOAD PUSH2 0x7C7 JUMP JUMPDEST ISZERO PUSH2 0x5E3 JUMPI PUSH1 0x4 DUP4 PUSH1 0x9 DUP2 LT ISZERO ISZERO PUSH2 0x5DA JUMPI INVALID JUMPDEST ADD SLOAD PUSH1 0x3 DUP2 SWAP1 SSTORE POP JUMPDEST PUSH1 0x3 DUP4 ADD SWAP3 POP PUSH2 0x57C JUMP JUMPDEST PUSH1 0x0 SWAP2 POP JUMPDEST PUSH1 0x3 DUP3 LT ISZERO PUSH2 0x667 JUMPI PUSH2 0x63D PUSH1 0x4 DUP4 PUSH1 0x9 DUP2 LT ISZERO ISZERO PUSH2 0x60E JUMPI INVALID JUMPDEST ADD SLOAD PUSH1 0x4 PUSH1 0x3 DUP6 ADD PUSH1 0x9 DUP2 LT ISZERO ISZERO PUSH2 0x622 JUMPI INVALID JUMPDEST ADD SLOAD PUSH1 0x4 PUSH1 0x6 DUP7 ADD PUSH1 0x9 DUP2 LT ISZERO ISZERO PUSH2 0x636 JUMPI INVALID JUMPDEST ADD SLOAD PUSH2 0x7C7 JUMP JUMPDEST ISZERO PUSH2 0x65A JUMPI PUSH1 0x4 DUP3 PUSH1 0x9 DUP2 LT ISZERO ISZERO PUSH2 0x651 JUMPI INVALID JUMPDEST ADD SLOAD PUSH1 0x3 DUP2 SWAP1 SSTORE POP JUMPDEST DUP2 DUP1 PUSH1 0x1 ADD SWAP3 POP POP PUSH2 0x5F3 JUMP JUMPDEST PUSH2 0x6A4 PUSH1 0x4 PUSH1 0x0 PUSH1 0x9 DUP2 LT ISZERO ISZERO PUSH2 0x67A JUMPI INVALID JUMPDEST ADD SLOAD PUSH1 0x4 DUP1 PUSH1 0x9 DUP2 LT ISZERO ISZERO PUSH2 0x68B JUMPI INVALID JUMPDEST ADD SLOAD PUSH1 0x4 PUSH1 0x8 PUSH1 0x9 DUP2 LT ISZERO ISZERO PUSH2 0x69D JUMPI INVALID JUMPDEST ADD SLOAD PUSH2 0x7C7 JUMP JUMPDEST DUP1 PUSH2 0x6E8 JUMPI POP PUSH2 0x6E7 PUSH1 0x4 PUSH1 0x2 PUSH1 0x9 DUP2 LT ISZERO ISZERO PUSH2 0x6BD JUMPI INVALID JUMPDEST ADD SLOAD PUSH1 0x4 DUP1 PUSH1 0x9 DUP2 LT ISZERO ISZERO PUSH2 0x6CE JUMPI INVALID JUMPDEST ADD SLOAD PUSH1 0x4 PUSH1 0x6 PUSH1 0x9 DUP2 LT ISZERO ISZERO PUSH2 0x6E0 JUMPI INVALID JUMPDEST ADD SLOAD PUSH2 0x7C7 JUMP JUMPDEST JUMPDEST ISZERO PUSH2 0x705 JUMPI PUSH1 0x4 DUP1 PUSH1 0x9 DUP2 LT ISZERO ISZERO PUSH2 0x6FC JUMPI INVALID JUMPDEST ADD SLOAD PUSH1 0x3 DUP2 SWAP1 SSTORE POP JUMPDEST PUSH1 0x0 SWAP1 POP JUMPDEST PUSH1 0x9 DUP2 LT ISZERO PUSH2 0x74F JUMPI PUSH1 0x0 PUSH1 0x4 DUP3 PUSH1 0x9 DUP2 LT ISZERO ISZERO PUSH2 0x724 JUMPI INVALID JUMPDEST ADD SLOAD EQ ISZERO PUSH2 0x731 JUMPI PUSH2 0x74F JUMP JUMPDEST PUSH1 0x8 DUP2 EQ ISZERO PUSH2 0x742 JUMPI PUSH1 0x3 DUP1 DUP2 SWAP1 SSTORE POP JUMPDEST DUP1 DUP1 PUSH1 0x1 ADD SWAP2 POP POP PUSH2 0x70A JUMP JUMPDEST POP POP POP POP POP POP JUMP JUMPDEST PUSH1 0x2 SLOAD DUP2 JUMP JUMPDEST PUSH1 0x0 DUP1 PUSH1 0x4 DUP4 PUSH1 0x9 DUP2 LT ISZERO ISZERO PUSH2 0x76F JUMPI INVALID JUMPDEST ADD SLOAD EQ DUP1 ISZERO PUSH2 0x78B JUMPI POP PUSH1 0x0 DUP3 LT ISZERO DUP1 ISZERO PUSH2 0x78A JUMPI POP PUSH1 0x9 DUP3 LT JUMPDEST JUMPDEST SWAP1 POP SWAP2 SWAP1 POP JUMP JUMPDEST PUSH1 0x0 DUP2 PUSH1 0x2 DUP2 LT ISZERO ISZERO PUSH2 0x7A1 JUMPI INVALID JUMPDEST ADD PUSH1 0x0 SWAP2 POP SLOAD SWAP1 PUSH2 0x100 EXP SWAP1 DIV PUSH20 0xFFFFFFFFFFFFFFFFFFFFFFFFFFFFFFFFFFFFFFFF AND DUP2 JUMP JUMPDEST PUSH1 0x0 DUP1 DUP5 EQ PUSH2 0x7E3 JUMPI DUP3 DUP5 EQ DUP1 ISZERO PUSH2 0x7DE JUMPI POP DUP2 DUP4 EQ JUMPDEST PUSH2 0x7E6 JUMP JUMPDEST PUSH1 0x0 JUMPDEST SWAP1 POP SWAP4 SWAP3 POP POP POP JUMP JUMPDEST PUSH2 0x120 PUSH1 0x40 MLOAD SWAP1 DUP2 ADD PUSH1 0x40 MSTORE DUP1 PUSH1 0x9 SWAP1 PUSH1 0x20 DUP3 MUL DUP1 CODESIZE DUP4 CODECOPY DUP1 DUP3 ADD SWAP2 POP POP SWAP1 POP POP SWAP1 JUMP STOP LOG1 PUSH6 0x627A7A723058 KECCAK256 COINBASE SHR 0xd MULMOD 0xe5 CALLDATALOAD 0x21 PUSH26 0xF284A74E5EFF29AF5AFA7E16BF3D060741BB7B03FC5D62BF0029 "
				},
				"gasEstimates": {
					"creation": {
						"codeDepositCost": "422200",
						"executionCost": "infinite",
						"totalCost": "infinite"
					},
					"external": {
						"move(uint256)": "infinite",
						"myTurn()": "708",
						"players(uint256)": "667",
						"showBoard()": "infinite",
						"status()": "416",
						"turn()": "482",
						"validMove(uint256)": "691"
					},
					"internal": {
						"_getStatus(uint256)": "infinite",
						"_threeInALine(uint256,uint256,uint256)": "103"
					}
				},
				"methodIdentifiers": {
					"move(uint256)": "87cb15f7",
					"myTurn()": "1ed4557f",
					"players(uint256)": "f71d96cb",
					"showBoard()": "49a9798d",
					"status()": "200d2ed2",
					"turn()": "8b299903",
					"validMove(uint256)": "b4c95a5c"
				}
			},
			"userdoc": {
				"methods": {}
			}
		}
	}
}