{
	"data": {
		"bytecode": {
			"linkReferences": {},
			"object": "6080604052600160025534801561001557600080fd5b50604051602080610ab6833981018060405281019080805190602001909291905050508073ffffffffffffffffffffffffffffffffffffffff163373ffffffffffffffffffffffffffffffffffffffff16141515156100dc576040517f08c379a000000000000000000000000000000000000000000000000000000000815260040180806020018281038252600c8152602001807f4e6f2073656c6620706c6179000000000000000000000000000000000000000081525060200191505060405180910390fd5b60408051908101604052803373ffffffffffffffffffffffffffffffffffffffff1673ffffffffffffffffffffffffffffffffffffffff1681526020018273ffffffffffffffffffffffffffffffffffffffff1673ffffffffffffffffffffffffffffffffffffffff168152506000906002610159929190610160565b5050610220565b82600281019282156101cc579160200282015b828111156101cb5782518260006101000a81548173ffffffffffffffffffffffffffffffffffffffff021916908373ffffffffffffffffffffffffffffffffffffffff16021790555091602001919060010190610173565b5b5090506101d991906101dd565b5090565b61021d91905b8082111561021957600081816101000a81549073ffffffffffffffffffffffffffffffffffffffff0219169055506001016101e3565b5090565b90565b6108878061022f6000396000f300608060405260043610610083576000357c0100000000000000000000000000000000000000000000000000000000900463ffffffff1680631ed4557f14610088578063200d2ed2146100b757806349a9798d146100e257806387cb15f7146101355780638b29990314610162578063b4c95a5c1461018d578063f71d96cb146101d2575b600080fd5b34801561009457600080fd5b5061009d61023f565b604051808215151515815260200191505060405180910390f35b3480156100c357600080fd5b506100cc6102aa565b6040518082815260200191505060405180910390f35b3480156100ee57600080fd5b506100f76102b0565b6040518082600960200280838360005b83811015610122578082015181840152602081019050610107565b5050505090500191505060405180910390f35b34801561014157600080fd5b50610160600480360381019080803590602001909291905050506102fb565b005b34801561016e57600080fd5b506101776107ae565b6040518082815260200191505060405180910390f35b34801561019957600080fd5b506101b8600480360381019080803590602001909291905050506107b4565b604051808215151515815260200191505060405180910390f35b3480156101de57600080fd5b506101fd600480360381019080803590602001909291905050506107e9565b604051808273ffffffffffffffffffffffffffffffffffffffff1673ffffffffffffffffffffffffffffffffffffffff16815260200191505060405180910390f35b60003373ffffffffffffffffffffffffffffffffffffffff16600060016002540360028110151561026c57fe5b0160009054906101000a900473ffffffffffffffffffffffffffffffffffffffff1673ffffffffffffffffffffffffffffffffffffffff1614905090565b60035481565b6102b8610837565b60046009806020026040519081016040528092919082600980156102f1576020028201915b8154815260200190600101908083116102dd575b5050505050905090565b806000811015801561030d5750600981105b15156103a7576040517f08c379a000000000000000000000000000000000000000000000000000000000815260040180806020018281038252603b8152602001807f494e56414c4944204d4f56453a204d6f766573206d757374206265206265747781526020017f65656e20626f61726420706f736974696f6e73203020616e642038000000000081525060400191505060405180910390fd5b60006004826009811015156103b857fe5b0154141515610455576040517f08c379a000000000000000000000000000000000000000000000000000000000815260040180806020018281038252602d8152602001807f494e56414c4944204d4f56453a20426f61726420706f736974696f6e20616c7281526020017f65616479206f636375706965640000000000000000000000000000000000000081525060400191505060405180910390fd5b816000806000806003541415156104d4576040517f08c379a000000000000000000000000000000000000000000000000000000000815260040180806020018281038252601b8152602001807f47414d45204f5645523a205468652067616d65206973206f766572000000000081525060200191505060405180910390fd5b3373ffffffffffffffffffffffffffffffffffffffff1660006001600254036002811015156104ff57fe5b0160009054906101000a900473ffffffffffffffffffffffffffffffffffffffff1673ffffffffffffffffffffffffffffffffffffffff1614151561054357600080fd5b60025460048760098110151561055557fe5b018190555060016002541461056b57600161056e565b60025b60ff16600281905550600092505b600983101561060b576105c660048460098110151561059757fe5b01546004600186016009811015156105ab57fe5b01546004600287016009811015156105bf57fe5b015461081e565b80156105e3575060006004846009811015156105de57fe5b015414155b15610600576004836009811015156105f757fe5b01546003819055505b60038301925061057c565b600091505b60038210156106a15761065a60048360098110151561062b57fe5b015460046003850160098110151561063f57fe5b015460046006860160098110151561065357fe5b015461081e565b80156106775750600060048460098110151561067257fe5b015414155b156106945760048260098110151561068b57fe5b01546003819055505b8180600101925050610610565b6106de600460006009811015156106b457fe5b01546004806009811015156106c557fe5b0154600460086009811015156106d757fe5b015461081e565b806107225750610721600460026009811015156106f757fe5b015460048060098110151561070857fe5b01546004600660098110151561071a57fe5b015461081e565b5b801561073f5750600060048060098110151561073a57fe5b015414155b1561075c5760048060098110151561075357fe5b01546003819055505b600090505b60098110156107a657600060048260098110151561077b57fe5b01541415610788576107a6565b600881141561079957600380819055505b8080600101915050610761565b505050505050565b60025481565b6000806004836009811015156107c657fe5b01541480156107e25750600082101580156107e15750600982105b5b9050919050565b6000816002811015156107f857fe5b016000915054906101000a900473ffffffffffffffffffffffffffffffffffffffff1681565b6000828414801561082e57508183145b90509392505050565b610120604051908101604052806009906020820280388339808201915050905050905600a165627a7a72305820abf7195fe65f20c3a2e29a03549fbe9d184e236901eada8eda50ef6a51b1205b0029",
			"opcodes": "PUSH1 0x80 PUSH1 0x40 MSTORE PUSH1 0x1 PUSH1 0x2 SSTORE CALLVALUE DUP1 ISZERO PUSH2 0x15 JUMPI PUSH1 0x0 DUP1 REVERT JUMPDEST POP PUSH1 0x40 MLOAD PUSH1 0x20 DUP1 PUSH2 0xAB6 DUP4 CODECOPY DUP2 ADD DUP1 PUSH1 0x40 MSTORE DUP2 ADD SWAP1 DUP1 DUP1 MLOAD SWAP1 PUSH1 0x20 ADD SWAP1 SWAP3 SWAP2 SWAP1 POP POP POP DUP1 PUSH20 0xFFFFFFFFFFFFFFFFFFFFFFFFFFFFFFFFFFFFFFFF AND CALLER PUSH20 0xFFFFFFFFFFFFFFFFFFFFFFFFFFFFFFFFFFFFFFFF AND EQ ISZERO ISZERO ISZERO PUSH2 0xDC JUMPI PUSH1 0x40 MLOAD PUSH32 0x8C379A000000000000000000000000000000000000000000000000000000000 DUP2 MSTORE PUSH1 0x4 ADD DUP1 DUP1 PUSH1 0x20 ADD DUP3 DUP2 SUB DUP3 MSTORE PUSH1 0xC DUP2 MSTORE PUSH1 0x20 ADD DUP1 PUSH32 0x4E6F2073656C6620706C61790000000000000000000000000000000000000000 DUP2 MSTORE POP PUSH1 0x20 ADD SWAP2 POP POP PUSH1 0x40 MLOAD DUP1 SWAP2 SUB SWAP1 REVERT JUMPDEST PUSH1 0x40 DUP1 MLOAD SWAP1 DUP2 ADD PUSH1 0x40 MSTORE DUP1 CALLER PUSH20 0xFFFFFFFFFFFFFFFFFFFFFFFFFFFFFFFFFFFFFFFF AND PUSH20 0xFFFFFFFFFFFFFFFFFFFFFFFFFFFFFFFFFFFFFFFF AND DUP2 MSTORE PUSH1 0x20 ADD DUP3 PUSH20 0xFFFFFFFFFFFFFFFFFFFFFFFFFFFFFFFFFFFFFFFF AND PUSH20 0xFFFFFFFFFFFFFFFFFFFFFFFFFFFFFFFFFFFFFFFF AND DUP2 MSTORE POP PUSH1 0x0 SWAP1 PUSH1 0x2 PUSH2 0x159 SWAP3 SWAP2 SWAP1 PUSH2 0x160 JUMP JUMPDEST POP POP PUSH2 0x220 JUMP JUMPDEST DUP3 PUSH1 0x2 DUP2 ADD SWAP3 DUP3 ISZERO PUSH2 0x1CC JUMPI SWAP2 PUSH1 0x20 MUL DUP3 ADD JUMPDEST DUP3 DUP2 GT ISZERO PUSH2 0x1CB JUMPI DUP3 MLOAD DUP3 PUSH1 0x0 PUSH2 0x100 EXP DUP2 SLOAD DUP2 PUSH20 0xFFFFFFFFFFFFFFFFFFFFFFFFFFFFFFFFFFFFFFFF MUL NOT AND SWAP1 DUP4 PUSH20 0xFFFFFFFFFFFFFFFFFFFFFFFFFFFFFFFFFFFFFFFF AND MUL OR SWAP1 SSTORE POP SWAP2 PUSH1 0x20 ADD SWAP2 SWAP1 PUSH1 0x1 ADD SWAP1 PUSH2 0x173 JUMP JUMPDEST JUMPDEST POP SWAP1 POP PUSH2 0x1D9 SWAP2 SWAP1 PUSH2 0x1DD JUMP JUMPDEST POP SWAP1 JUMP JUMPDEST PUSH2 0x21D SWAP2 SWAP1 JUMPDEST DUP1 DUP3 GT ISZERO PUSH2 0x219 JUMPI PUSH1 0x0 DUP2 DUP2 PUSH2 0x100 EXP DUP2 SLOAD SWAP1 PUSH20 0xFFFFFFFFFFFFFFFFFFFFFFFFFFFFFFFFFFFFFFFF MUL NOT AND SWAP1 SSTORE POP PUSH1 0x1 ADD PUSH2 0x1E3 JUMP JUMPDEST POP SWAP1 JUMP JUMPDEST SWAP1 JUMP JUMPDEST PUSH2 0x887 DUP1 PUSH2 0x22F PUSH1 0x0 CODECOPY PUSH1 0x0 RETURN STOP PUSH1 0x80 PUSH1 0x40 MSTORE PUSH1 0x4 CALLDATASIZE LT PUSH2 0x83 JUMPI PUSH1 0x0 CALLDATALOAD PUSH29 0x100000000000000000000000000000000000000000000000000000000 SWAP1 DIV PUSH4 0xFFFFFFFF AND DUP1 PUSH4 0x1ED4557F EQ PUSH2 0x88 JUMPI DUP1 PUSH4 0x200D2ED2 EQ PUSH2 0xB7 JUMPI DUP1 PUSH4 0x49A9798D EQ PUSH2 0xE2 JUMPI DUP1 PUSH4 0x87CB15F7 EQ PUSH2 0x135 JUMPI DUP1 PUSH4 0x8B299903 EQ PUSH2 0x162 JUMPI DUP1 PUSH4 0xB4C95A5C EQ PUSH2 0x18D JUMPI DUP1 PUSH4 0xF71D96CB EQ PUSH2 0x1D2 JUMPI JUMPDEST PUSH1 0x0 DUP1 REVERT JUMPDEST CALLVALUE DUP1 ISZERO PUSH2 0x94 JUMPI PUSH1 0x0 DUP1 REVERT JUMPDEST POP PUSH2 0x9D PUSH2 0x23F JUMP JUMPDEST PUSH1 0x40 MLOAD DUP1 DUP3 ISZERO ISZERO ISZERO ISZERO DUP2 MSTORE PUSH1 0x20 ADD SWAP2 POP POP PUSH1 0x40 MLOAD DUP1 SWAP2 SUB SWAP1 RETURN JUMPDEST CALLVALUE DUP1 ISZERO PUSH2 0xC3 JUMPI PUSH1 0x0 DUP1 REVERT JUMPDEST POP PUSH2 0xCC PUSH2 0x2AA JUMP JUMPDEST PUSH1 0x40 MLOAD DUP1 DUP3 DUP2 MSTORE PUSH1 0x20 ADD SWAP2 POP POP PUSH1 0x40 MLOAD DUP1 SWAP2 SUB SWAP1 RETURN JUMPDEST CALLVALUE DUP1 ISZERO PUSH2 0xEE JUMPI PUSH1 0x0 DUP1 REVERT JUMPDEST POP PUSH2 0xF7 PUSH2 0x2B0 JUMP JUMPDEST PUSH1 0x40 MLOAD DUP1 DUP3 PUSH1 0x9 PUSH1 0x20 MUL DUP1 DUP4 DUP4 PUSH1 0x0 JUMPDEST DUP4 DUP2 LT ISZERO PUSH2 0x122 JUMPI DUP1 DUP3 ADD MLOAD DUP2 DUP5 ADD MSTORE PUSH1 0x20 DUP2 ADD SWAP1 POP PUSH2 0x107 JUMP JUMPDEST POP POP POP POP SWAP1 POP ADD SWAP2 POP POP PUSH1 0x40 MLOAD DUP1 SWAP2 SUB SWAP1 RETURN JUMPDEST CALLVALUE DUP1 ISZERO PUSH2 0x141 JUMPI PUSH1 0x0 DUP1 REVERT JUMPDEST POP PUSH2 0x160 PUSH1 0x4 DUP1 CALLDATASIZE SUB DUP2 ADD SWAP1 DUP1 DUP1 CALLDATALOAD SWAP1 PUSH1 0x20 ADD SWAP1 SWAP3 SWAP2 SWAP1 POP POP POP PUSH2 0x2FB JUMP JUMPDEST STOP JUMPDEST CALLVALUE DUP1 ISZERO PUSH2 0x16E JUMPI PUSH1 0x0 DUP1 REVERT JUMPDEST POP PUSH2 0x177 PUSH2 0x7AE JUMP JUMPDEST PUSH1 0x40 MLOAD DUP1 DUP3 DUP2 MSTORE PUSH1 0x20 ADD SWAP2 POP POP PUSH1 0x40 MLOAD DUP1 SWAP2 SUB SWAP1 RETURN JUMPDEST CALLVALUE DUP1 ISZERO PUSH2 0x199 JUMPI PUSH1 0x0 DUP1 REVERT JUMPDEST POP PUSH2 0x1B8 PUSH1 0x4 DUP1 CALLDATASIZE SUB DUP2 ADD SWAP1 DUP1 DUP1 CALLDATALOAD SWAP1 PUSH1 0x20 ADD SWAP1 SWAP3 SWAP2 SWAP1 POP POP POP PUSH2 0x7B4 JUMP JUMPDEST PUSH1 0x40 MLOAD DUP1 DUP3 ISZERO ISZERO ISZERO ISZERO DUP2 MSTORE PUSH1 0x20 ADD SWAP2 POP POP PUSH1 0x40 MLOAD DUP1 SWAP2 SUB SWAP1 RETURN JUMPDEST CALLVALUE DUP1 ISZERO PUSH2 0x1DE JUMPI PUSH1 0x0 DUP1 REVERT JUMPDEST POP PUSH2 0x1FD PUSH1 0x4 DUP1 CALLDATASIZE SUB DUP2 ADD SWAP1 DUP1 DUP1 CALLDATALOAD SWAP1 PUSH1 0x20 ADD SWAP1 SWAP3 SWAP2 SWAP1 POP POP POP PUSH2 0x7E9 JUMP JUMPDEST PUSH1 0x40 MLOAD DUP1 DUP3 PUSH20 0xFFFFFFFFFFFFFFFFFFFFFFFFFFFFFFFFFFFFFFFF AND PUSH20 0xFFFFFFFFFFFFFFFFFFFFFFFFFFFFFFFFFFFFFFFF AND DUP2 MSTORE PUSH1 0x20 ADD SWAP2 POP POP PUSH1 0x40 MLOAD DUP1 SWAP2 SUB SWAP1 RETURN JUMPDEST PUSH1 0x0 CALLER PUSH20 0xFFFFFFFFFFFFFFFFFFFFFFFFFFFFFFFFFFFFFFFF AND PUSH1 0x0 PUSH1 0x1 PUSH1 0x2 SLOAD SUB PUSH1 0x2 DUP2 LT ISZERO ISZERO PUSH2 0x26C JUMPI INVALID JUMPDEST ADD PUSH1 0x0 SWAP1 SLOAD SWAP1 PUSH2 0x100 EXP SWAP1 DIV PUSH20 0xFFFFFFFFFFFFFFFFFFFFFFFFFFFFFFFFFFFFFFFF AND PUSH20 0xFFFFFFFFFFFFFFFFFFFFFFFFFFFFFFFFFFFFFFFF AND EQ SWAP1 POP SWAP1 JUMP JUMPDEST PUSH1 0x3 SLOAD DUP2 JUMP JUMPDEST PUSH2 0x2B8 PUSH2 0x837 JUMP JUMPDEST PUSH1 0x4 PUSH1 0x9 DUP1 PUSH1 0x20 MUL PUSH1 0x40 MLOAD SWAP1 DUP2 ADD PUSH1 0x40 MSTORE DUP1 SWAP3 SWAP2 SWAP1 DUP3 PUSH1 0x9 DUP1 ISZERO PUSH2 0x2F1 JUMPI PUSH1 0x20 MUL DUP3 ADD SWAP2 JUMPDEST DUP2 SLOAD DUP2 MSTORE PUSH1 0x20 ADD SWAP1 PUSH1 0x1 ADD SWAP1 DUP1 DUP4 GT PUSH2 0x2DD JUMPI JUMPDEST POP POP POP POP POP SWAP1 POP SWAP1 JUMP JUMPDEST DUP1 PUSH1 0x0 DUP2 LT ISZERO DUP1 ISZERO PUSH2 0x30D JUMPI POP PUSH1 0x9 DUP2 LT JUMPDEST ISZERO ISZERO PUSH2 0x3A7 JUMPI PUSH1 0x40 MLOAD PUSH32 0x8C379A000000000000000000000000000000000000000000000000000000000 DUP2 MSTORE PUSH1 0x4 ADD DUP1 DUP1 PUSH1 0x20 ADD DUP3 DUP2 SUB DUP3 MSTORE PUSH1 0x3B DUP2 MSTORE PUSH1 0x20 ADD DUP1 PUSH32 0x494E56414C4944204D4F56453A204D6F766573206D7573742062652062657477 DUP2 MSTORE PUSH1 0x20 ADD PUSH32 0x65656E20626F61726420706F736974696F6E73203020616E6420380000000000 DUP2 MSTORE POP PUSH1 0x40 ADD SWAP2 POP POP PUSH1 0x40 MLOAD DUP1 SWAP2 SUB SWAP1 REVERT JUMPDEST PUSH1 0x0 PUSH1 0x4 DUP3 PUSH1 0x9 DUP2 LT ISZERO ISZERO PUSH2 0x3B8 JUMPI INVALID JUMPDEST ADD SLOAD EQ ISZERO ISZERO PUSH2 0x455 JUMPI PUSH1 0x40 MLOAD PUSH32 0x8C379A000000000000000000000000000000000000000000000000000000000 DUP2 MSTORE PUSH1 0x4 ADD DUP1 DUP1 PUSH1 0x20 ADD DUP3 DUP2 SUB DUP3 MSTORE PUSH1 0x2D DUP2 MSTORE PUSH1 0x20 ADD DUP1 PUSH32 0x494E56414C4944204D4F56453A20426F61726420706F736974696F6E20616C72 DUP2 MSTORE PUSH1 0x20 ADD PUSH32 0x65616479206F6363757069656400000000000000000000000000000000000000 DUP2 MSTORE POP PUSH1 0x40 ADD SWAP2 POP POP PUSH1 0x40 MLOAD DUP1 SWAP2 SUB SWAP1 REVERT JUMPDEST DUP2 PUSH1 0x0 DUP1 PUSH1 0x0 DUP1 PUSH1 0x3 SLOAD EQ ISZERO ISZERO PUSH2 0x4D4 JUMPI PUSH1 0x40 MLOAD PUSH32 0x8C379A000000000000000000000000000000000000000000000000000000000 DUP2 MSTORE PUSH1 0x4 ADD DUP1 DUP1 PUSH1 0x20 ADD DUP3 DUP2 SUB DUP3 MSTORE PUSH1 0x1B DUP2 MSTORE PUSH1 0x20 ADD DUP1 PUSH32 0x47414D45204F5645523A205468652067616D65206973206F7665720000000000 DUP2 MSTORE POP PUSH1 0x20 ADD SWAP2 POP POP PUSH1 0x40 MLOAD DUP1 SWAP2 SUB SWAP1 REVERT JUMPDEST CALLER PUSH20 0xFFFFFFFFFFFFFFFFFFFFFFFFFFFFFFFFFFFFFFFF AND PUSH1 0x0 PUSH1 0x1 PUSH1 0x2 SLOAD SUB PUSH1 0x2 DUP2 LT ISZERO ISZERO PUSH2 0x4FF JUMPI INVALID JUMPDEST ADD PUSH1 0x0 SWAP1 SLOAD SWAP1 PUSH2 0x100 EXP SWAP1 DIV PUSH20 0xFFFFFFFFFFFFFFFFFFFFFFFFFFFFFFFFFFFFFFFF AND PUSH20 0xFFFFFFFFFFFFFFFFFFFFFFFFFFFFFFFFFFFFFFFF AND EQ ISZERO ISZERO PUSH2 0x543 JUMPI PUSH1 0x0 DUP1 REVERT JUMPDEST PUSH1 0x2 SLOAD PUSH1 0x4 DUP8 PUSH1 0x9 DUP2 LT ISZERO ISZERO PUSH2 0x555 JUMPI INVALID JUMPDEST ADD DUP2 SWAP1 SSTORE POP PUSH1 0x1 PUSH1 0x2 SLOAD EQ PUSH2 0x56B JUMPI PUSH1 0x1 PUSH2 0x56E JUMP JUMPDEST PUSH1 0x2 JUMPDEST PUSH1 0xFF AND PUSH1 0x2 DUP2 SWAP1 SSTORE POP PUSH1 0x0 SWAP3 POP JUMPDEST PUSH1 0x9 DUP4 LT ISZERO PUSH2 0x60B JUMPI PUSH2 0x5C6 PUSH1 0x4 DUP5 PUSH1 0x9 DUP2 LT ISZERO ISZERO PUSH2 0x597 JUMPI INVALID JUMPDEST ADD SLOAD PUSH1 0x4 PUSH1 0x1 DUP7 ADD PUSH1 0x9 DUP2 LT ISZERO ISZERO PUSH2 0x5AB JUMPI INVALID JUMPDEST ADD SLOAD PUSH1 0x4 PUSH1 0x2 DUP8 ADD PUSH1 0x9 DUP2 LT ISZERO ISZERO PUSH2 0x5BF JUMPI INVALID JUMPDEST ADD SLOAD PUSH2 0x81E JUMP JUMPDEST DUP1 ISZERO PUSH2 0x5E3 JUMPI POP PUSH1 0x0 PUSH1 0x4 DUP5 PUSH1 0x9 DUP2 LT ISZERO ISZERO PUSH2 0x5DE JUMPI INVALID JUMPDEST ADD SLOAD EQ ISZERO JUMPDEST ISZERO PUSH2 0x600 JUMPI PUSH1 0x4 DUP4 PUSH1 0x9 DUP2 LT ISZERO ISZERO PUSH2 0x5F7 JUMPI INVALID JUMPDEST ADD SLOAD PUSH1 0x3 DUP2 SWAP1 SSTORE POP JUMPDEST PUSH1 0x3 DUP4 ADD SWAP3 POP PUSH2 0x57C JUMP JUMPDEST PUSH1 0x0 SWAP2 POP JUMPDEST PUSH1 0x3 DUP3 LT ISZERO PUSH2 0x6A1 JUMPI PUSH2 0x65A PUSH1 0x4 DUP4 PUSH1 0x9 DUP2 LT ISZERO ISZERO PUSH2 0x62B JUMPI INVALID JUMPDEST ADD SLOAD PUSH1 0x4 PUSH1 0x3 DUP6 ADD PUSH1 0x9 DUP2 LT ISZERO ISZERO PUSH2 0x63F JUMPI INVALID JUMPDEST ADD SLOAD PUSH1 0x4 PUSH1 0x6 DUP7 ADD PUSH1 0x9 DUP2 LT ISZERO ISZERO PUSH2 0x653 JUMPI INVALID JUMPDEST ADD SLOAD PUSH2 0x81E JUMP JUMPDEST DUP1 ISZERO PUSH2 0x677 JUMPI POP PUSH1 0x0 PUSH1 0x4 DUP5 PUSH1 0x9 DUP2 LT ISZERO ISZERO PUSH2 0x672 JUMPI INVALID JUMPDEST ADD SLOAD EQ ISZERO JUMPDEST ISZERO PUSH2 0x694 JUMPI PUSH1 0x4 DUP3 PUSH1 0x9 DUP2 LT ISZERO ISZERO PUSH2 0x68B JUMPI INVALID JUMPDEST ADD SLOAD PUSH1 0x3 DUP2 SWAP1 SSTORE POP JUMPDEST DUP2 DUP1 PUSH1 0x1 ADD SWAP3 POP POP PUSH2 0x610 JUMP JUMPDEST PUSH2 0x6DE PUSH1 0x4 PUSH1 0x0 PUSH1 0x9 DUP2 LT ISZERO ISZERO PUSH2 0x6B4 JUMPI INVALID JUMPDEST ADD SLOAD PUSH1 0x4 DUP1 PUSH1 0x9 DUP2 LT ISZERO ISZERO PUSH2 0x6C5 JUMPI INVALID JUMPDEST ADD SLOAD PUSH1 0x4 PUSH1 0x8 PUSH1 0x9 DUP2 LT ISZERO ISZERO PUSH2 0x6D7 JUMPI INVALID JUMPDEST ADD SLOAD PUSH2 0x81E JUMP JUMPDEST DUP1 PUSH2 0x722 JUMPI POP PUSH2 0x721 PUSH1 0x4 PUSH1 0x2 PUSH1 0x9 DUP2 LT ISZERO ISZERO PUSH2 0x6F7 JUMPI INVALID JUMPDEST ADD SLOAD PUSH1 0x4 DUP1 PUSH1 0x9 DUP2 LT ISZERO ISZERO PUSH2 0x708 JUMPI INVALID JUMPDEST ADD SLOAD PUSH1 0x4 PUSH1 0x6 PUSH1 0x9 DUP2 LT ISZERO ISZERO PUSH2 0x71A JUMPI INVALID JUMPDEST ADD SLOAD PUSH2 0x81E JUMP JUMPDEST JUMPDEST DUP1 ISZERO PUSH2 0x73F JUMPI POP PUSH1 0x0 PUSH1 0x4 DUP1 PUSH1 0x9 DUP2 LT ISZERO ISZERO PUSH2 0x73A JUMPI INVALID JUMPDEST ADD SLOAD EQ ISZERO JUMPDEST ISZERO PUSH2 0x75C JUMPI PUSH1 0x4 DUP1 PUSH1 0x9 DUP2 LT ISZERO ISZERO PUSH2 0x753 JUMPI INVALID JUMPDEST ADD SLOAD PUSH1 0x3 DUP2 SWAP1 SSTORE POP JUMPDEST PUSH1 0x0 SWAP1 POP JUMPDEST PUSH1 0x9 DUP2 LT ISZERO PUSH2 0x7A6 JUMPI PUSH1 0x0 PUSH1 0x4 DUP3 PUSH1 0x9 DUP2 LT ISZERO ISZERO PUSH2 0x77B JUMPI INVALID JUMPDEST ADD SLOAD EQ ISZERO PUSH2 0x788 JUMPI PUSH2 0x7A6 JUMP JUMPDEST PUSH1 0x8 DUP2 EQ ISZERO PUSH2 0x799 JUMPI PUSH1 0x3 DUP1 DUP2 SWAP1 SSTORE POP JUMPDEST DUP1 DUP1 PUSH1 0x1 ADD SWAP2 POP POP PUSH2 0x761 JUMP JUMPDEST POP POP POP POP POP POP JUMP JUMPDEST PUSH1 0x2 SLOAD DUP2 JUMP JUMPDEST PUSH1 0x0 DUP1 PUSH1 0x4 DUP4 PUSH1 0x9 DUP2 LT ISZERO ISZERO PUSH2 0x7C6 JUMPI INVALID JUMPDEST ADD SLOAD EQ DUP1 ISZERO PUSH2 0x7E2 JUMPI POP PUSH1 0x0 DUP3 LT ISZERO DUP1 ISZERO PUSH2 0x7E1 JUMPI POP PUSH1 0x9 DUP3 LT JUMPDEST JUMPDEST SWAP1 POP SWAP2 SWAP1 POP JUMP JUMPDEST PUSH1 0x0 DUP2 PUSH1 0x2 DUP2 LT ISZERO ISZERO PUSH2 0x7F8 JUMPI INVALID JUMPDEST ADD PUSH1 0x0 SWAP2 POP SLOAD SWAP1 PUSH2 0x100 EXP SWAP1 DIV PUSH20 0xFFFFFFFFFFFFFFFFFFFFFFFFFFFFFFFFFFFFFFFF AND DUP2 JUMP JUMPDEST PUSH1 0x0 DUP3 DUP5 EQ DUP1 ISZERO PUSH2 0x82E JUMPI POP DUP2 DUP4 EQ JUMPDEST SWAP1 POP SWAP4 SWAP3 POP POP POP JUMP JUMPDEST PUSH2 0x120 PUSH1 0x40 MLOAD SWAP1 DUP2 ADD PUSH1 0x40 MSTORE DUP1 PUSH1 0x9 SWAP1 PUSH1 0x20 DUP3 MUL DUP1 CODESIZE DUP4 CODECOPY DUP1 DUP3 ADD SWAP2 POP POP SWAP1 POP POP SWAP1 JUMP STOP LOG1 PUSH6 0x627A7A723058 KECCAK256 0xab 0xf7 NOT 0x5f 0xe6 0x5f KECCAK256 0xc3 LOG2 0xe2 SWAP11 SUB SLOAD SWAP16 0xbe SWAP14 XOR 0x4e 0x23 PUSH10 0x1EADA8EDA50EF6A51B1 KECCAK256 JUMPDEST STOP 0x29 "
		},
		"gasEstimates": {
			"creation": {
				"codeDepositCost": "436600",
				"executionCost": "infinite",
				"totalCost": "infinite"
			},
			"external": {
				"move(uint256)": "infinite",
				"myTurn()": "708",
				"players(uint256)": "667",
				"showBoard()": "infinite",
				"status()": "416",
				"turn()": "482",
				"validMove(uint256)": "691"
			},
			"internal": {
				"_getStatus(uint256)": "infinite",
				"_threeInALine(uint256,uint256,uint256)": "69"
			}
		},
		"methodIdentifiers": {
			"move(uint256)": "87cb15f7",
			"myTurn()": "1ed4557f",
			"players(uint256)": "f71d96cb",
			"showBoard()": "49a9798d",
			"status()": "200d2ed2",
			"turn()": "8b299903",
			"validMove(uint256)": "b4c95a5c"
		}
	},
	"abi": [
		{
			"constant": true,
			"inputs": [],
			"name": "myTurn",
			"outputs": [
				{
					"name": "",
					"type": "bool"
				}
			],
			"payable": false,
			"stateMutability": "view",
			"type": "function"
		},
		{
			"constant": true,
			"inputs": [],
			"name": "status",
			"outputs": [
				{
					"name": "",
					"type": "uint256"
				}
			],
			"payable": false,
			"stateMutability": "view",
			"type": "function"
		},
		{
			"constant": true,
			"inputs": [],
			"name": "showBoard",
			"outputs": [
				{
					"name": "",
					"type": "uint256[9]"
				}
			],
			"payable": false,
			"stateMutability": "view",
			"type": "function"
		},
		{
			"constant": false,
			"inputs": [
				{
					"name": "pos",
					"type": "uint256"
				}
			],
			"name": "move",
			"outputs": [],
			"payable": false,
			"stateMutability": "nonpayable",
			"type": "function"
		},
		{
			"constant": true,
			"inputs": [],
			"name": "turn",
			"outputs": [
				{
					"name": "",
					"type": "uint256"
				}
			],
			"payable": false,
			"stateMutability": "view",
			"type": "function"
		},
		{
			"constant": true,
			"inputs": [
				{
					"name": "pos",
					"type": "uint256"
				}
			],
			"name": "validMove",
			"outputs": [
				{
					"name": "",
					"type": "bool"
				}
			],
			"payable": false,
			"stateMutability": "view",
			"type": "function"
		},
		{
			"constant": true,
			"inputs": [
				{
					"name": "",
					"type": "uint256"
				}
			],
			"name": "players",
			"outputs": [
				{
					"name": "",
					"type": "address"
				}
			],
			"payable": false,
			"stateMutability": "view",
			"type": "function"
		},
		{
			"inputs": [
				{
					"name": "opponent",
					"type": "address"
				}
			],
			"payable": false,
			"stateMutability": "nonpayable",
			"type": "constructor"
		}
	]
}